{
  "contractName": "MultiSigWalletV2",
  "abi": [
    {
      "inputs": [
        {
          "internalType": "string",
          "name": "_name",
          "type": "string"
        },
        {
          "internalType": "address[]",
          "name": "_owners",
          "type": "address[]"
        },
        {
          "internalType": "uint256",
          "name": "_required",
          "type": "uint256"
        },
        {
          "internalType": "uint256",
          "name": "_value",
          "type": "uint256"
        }
      ],
      "stateMutability": "nonpayable",
      "type": "constructor"
    },
    {
      "anonymous": false,
      "inputs": [
        {
          "indexed": true,
          "internalType": "address",
          "name": "owner",
          "type": "address"
        },
        {
          "indexed": true,
          "internalType": "uint256",
          "name": "txId",
          "type": "uint256"
        }
      ],
      "name": "Approve",
      "type": "event"
    },
    {
      "anonymous": false,
      "inputs": [
        {
          "indexed": true,
          "internalType": "address",
          "name": "sender",
          "type": "address"
        },
        {
          "indexed": false,
          "internalType": "uint256",
          "name": "amount",
          "type": "uint256"
        }
      ],
      "name": "Deposit",
      "type": "event"
    },
    {
      "anonymous": false,
      "inputs": [
        {
          "indexed": true,
          "internalType": "uint256",
          "name": "txId",
          "type": "uint256"
        }
      ],
      "name": "Execute",
      "type": "event"
    },
    {
      "anonymous": false,
      "inputs": [
        {
          "indexed": true,
          "internalType": "address",
          "name": "owner",
          "type": "address"
        },
        {
          "indexed": true,
          "internalType": "uint256",
          "name": "txId",
          "type": "uint256"
        }
      ],
      "name": "Revoke",
      "type": "event"
    },
    {
      "anonymous": false,
      "inputs": [
        {
          "indexed": true,
          "internalType": "uint256",
          "name": "txId",
          "type": "uint256"
        }
      ],
      "name": "Submit",
      "type": "event"
    },
    {
      "inputs": [
        {
          "internalType": "uint256",
          "name": "",
          "type": "uint256"
        },
        {
          "internalType": "address",
          "name": "",
          "type": "address"
        }
      ],
      "name": "approved",
      "outputs": [
        {
          "internalType": "bool",
          "name": "",
          "type": "bool"
        }
      ],
      "stateMutability": "view",
      "type": "function"
    },
    {
      "inputs": [],
      "name": "faucetValue",
      "outputs": [
        {
          "internalType": "uint256",
          "name": "",
          "type": "uint256"
        }
      ],
      "stateMutability": "view",
      "type": "function"
    },
    {
      "inputs": [
        {
          "internalType": "address",
          "name": "",
          "type": "address"
        }
      ],
      "name": "isOwner",
      "outputs": [
        {
          "internalType": "bool",
          "name": "",
          "type": "bool"
        }
      ],
      "stateMutability": "view",
      "type": "function"
    },
    {
      "inputs": [
        {
          "internalType": "uint256",
          "name": "",
          "type": "uint256"
        }
      ],
      "name": "owners",
      "outputs": [
        {
          "internalType": "address",
          "name": "",
          "type": "address"
        }
      ],
      "stateMutability": "view",
      "type": "function"
    },
    {
      "inputs": [],
      "name": "required",
      "outputs": [
        {
          "internalType": "uint256",
          "name": "",
          "type": "uint256"
        }
      ],
      "stateMutability": "view",
      "type": "function"
    },
    {
      "inputs": [
        {
          "internalType": "uint256",
          "name": "",
          "type": "uint256"
        }
      ],
      "name": "transactions",
      "outputs": [
        {
          "internalType": "address",
          "name": "to",
          "type": "address"
        },
        {
          "internalType": "uint256",
          "name": "value",
          "type": "uint256"
        },
        {
          "internalType": "bytes",
          "name": "data",
          "type": "bytes"
        },
        {
          "internalType": "bool",
          "name": "executed",
          "type": "bool"
        }
      ],
      "stateMutability": "view",
      "type": "function"
    },
    {
      "inputs": [],
      "name": "walletName",
      "outputs": [
        {
          "internalType": "string",
          "name": "",
          "type": "string"
        }
      ],
      "stateMutability": "view",
      "type": "function"
    },
    {
      "stateMutability": "payable",
      "type": "receive"
    },
    {
      "inputs": [
        {
          "internalType": "address",
          "name": "_to",
          "type": "address"
        },
        {
          "internalType": "uint256",
          "name": "_value",
          "type": "uint256"
        },
        {
          "internalType": "bytes",
          "name": "_data",
          "type": "bytes"
        }
      ],
      "name": "submit",
      "outputs": [],
      "stateMutability": "nonpayable",
      "type": "function"
    },
    {
      "inputs": [
        {
          "internalType": "uint256",
          "name": "_txId",
          "type": "uint256"
        }
      ],
      "name": "approve",
      "outputs": [],
      "stateMutability": "nonpayable",
      "type": "function"
    },
    {
      "inputs": [
        {
          "internalType": "uint256",
          "name": "_txId",
          "type": "uint256"
        }
      ],
      "name": "_getApprovalCount",
      "outputs": [
        {
          "internalType": "uint256",
          "name": "count",
          "type": "uint256"
        }
      ],
      "stateMutability": "view",
      "type": "function"
    },
    {
      "inputs": [
        {
          "internalType": "uint256",
          "name": "_txId",
          "type": "uint256"
        }
      ],
      "name": "execute",
      "outputs": [],
      "stateMutability": "payable",
      "type": "function"
    },
    {
      "inputs": [
        {
          "internalType": "uint256",
          "name": "_txId",
          "type": "uint256"
        }
      ],
      "name": "revoke",
      "outputs": [],
      "stateMutability": "nonpayable",
      "type": "function"
    },
    {
      "inputs": [],
      "name": "getName",
      "outputs": [
        {
          "internalType": "string",
          "name": "",
          "type": "string"
        }
      ],
      "stateMutability": "view",
      "type": "function"
    },
    {
      "inputs": [],
      "name": "getRequired",
      "outputs": [
        {
          "internalType": "uint256",
          "name": "",
          "type": "uint256"
        }
      ],
      "stateMutability": "view",
      "type": "function"
    },
    {
      "inputs": [],
      "name": "getOwnersCount",
      "outputs": [
        {
          "internalType": "uint256",
          "name": "",
          "type": "uint256"
        }
      ],
      "stateMutability": "view",
      "type": "function"
    },
    {
      "inputs": [],
      "name": "getTxs",
      "outputs": [
        {
          "components": [
            {
              "internalType": "address",
              "name": "to",
              "type": "address"
            },
            {
              "internalType": "uint256",
              "name": "value",
              "type": "uint256"
            },
            {
              "internalType": "bytes",
              "name": "data",
              "type": "bytes"
            },
            {
              "internalType": "bool",
              "name": "executed",
              "type": "bool"
            }
          ],
          "internalType": "struct MultiSigWalletV2.Transaction[]",
          "name": "",
          "type": "tuple[]"
        }
      ],
      "stateMutability": "view",
      "type": "function"
    }
  ],
  "bytecode": "0x60806040523480156200001157600080fd5b50604051620028313803806200283183398181016040528101906200003791906200051e565b60008351116200007e576040517f08c379a0000000000000000000000000000000000000000000000000000000008152600401620000759062000754565b60405180910390fd5b60008211801562000090575082518211155b620000d2576040517f08c379a0000000000000000000000000000000000000000000000000000000008152600401620000c99062000776565b60405180910390fd5b60005b8351811015620002fa5760008482815181106200011b577f4e487b7100000000000000000000000000000000000000000000000000000000600052603260045260246000fd5b60200260200101519050600073ffffffffffffffffffffffffffffffffffffffff168173ffffffffffffffffffffffffffffffffffffffff16141562000198576040517f08c379a00000000000000000000000000000000000000000000000000000000081526004016200018f9062000732565b60405180910390fd5b600560008273ffffffffffffffffffffffffffffffffffffffff1673ffffffffffffffffffffffffffffffffffffffff16815260200190815260200160002060009054906101000a900460ff161562000228576040517f08c379a00000000000000000000000000000000000000000000000000000000081526004016200021f9062000710565b60405180910390fd5b6001600560008373ffffffffffffffffffffffffffffffffffffffff1673ffffffffffffffffffffffffffffffffffffffff16815260200190815260200160002060006101000a81548160ff0219169083151502179055506002819080600181540180825580915050600190039060005260206000200160009091909190916101000a81548173ffffffffffffffffffffffffffffffffffffffff021916908373ffffffffffffffffffffffffffffffffffffffff160217905550508080620002f190620008e9565b915050620000d5565b508360009080519060200190620003139291906200032c565b50816003819055508060018190555050505050620009f8565b8280546200033a90620008b3565b90600052602060002090601f0160209004810192826200035e5760008555620003aa565b82601f106200037957805160ff1916838001178555620003aa565b82800160010185558215620003aa579182015b82811115620003a95782518255916020019190600101906200038c565b5b509050620003b99190620003bd565b5090565b5b80821115620003d8576000816000905550600101620003be565b5090565b6000620003f3620003ed84620007cc565b62000798565b905080838252602082019050828560208602820111156200041357600080fd5b60005b858110156200044757816200042c888262000496565b84526020840193506020830192505060018101905062000416565b5050509392505050565b6000620004686200046284620007fb565b62000798565b9050828152602081018484840111156200048157600080fd5b6200048e8482856200087d565b509392505050565b600081519050620004a781620009c4565b92915050565b600082601f830112620004bf57600080fd5b8151620004d1848260208601620003dc565b91505092915050565b600082601f830112620004ec57600080fd5b8151620004fe84826020860162000451565b91505092915050565b6000815190506200051881620009de565b92915050565b600080600080608085870312156200053557600080fd5b600085015167ffffffffffffffff8111156200055057600080fd5b6200055e87828801620004da565b945050602085015167ffffffffffffffff8111156200057c57600080fd5b6200058a87828801620004ad565b93505060406200059d8782880162000507565b9250506060620005b08782880162000507565b91505092959194509250565b6000620005cb6013836200082e565b91507f6f776e6572206973206e6f7420756e69717565000000000000000000000000006000830152602082019050919050565b60006200060d600f836200082e565b91507f696e76616c6964206164647265737300000000000000000000000000000000006000830152602082019050919050565b60006200064f6032836200082e565b91507f6e756d626572206f66206f776e657220616464726573736573206d757374206260008301527f65206d6f7265207468616e207a65726f212100000000000000000000000000006020830152604082019050919050565b6000620006b76021836200082e565b91507f696e76616c6964207265717569726564206e756d626572206f66206f776e657260008301527f73000000000000000000000000000000000000000000000000000000000000006020830152604082019050919050565b600060208201905081810360008301526200072b81620005bc565b9050919050565b600060208201905081810360008301526200074d81620005fe565b9050919050565b600060208201905081810360008301526200076f8162000640565b9050919050565b600060208201905081810360008301526200079181620006a8565b9050919050565b6000604051905081810181811067ffffffffffffffff82111715620007c257620007c162000995565b5b8060405250919050565b600067ffffffffffffffff821115620007ea57620007e962000995565b5b602082029050602081019050919050565b600067ffffffffffffffff82111562000819576200081862000995565b5b601f19601f8301169050602081019050919050565b600082825260208201905092915050565b60006200084c8262000853565b9050919050565b600073ffffffffffffffffffffffffffffffffffffffff82169050919050565b6000819050919050565b60005b838110156200089d57808201518184015260208101905062000880565b83811115620008ad576000848401525b50505050565b60006002820490506001821680620008cc57607f821691505b60208210811415620008e357620008e262000966565b5b50919050565b6000620008f68262000873565b91507fffffffffffffffffffffffffffffffffffffffffffffffffffffffffffffffff8214156200092c576200092b62000937565b5b600182019050919050565b7f4e487b7100000000000000000000000000000000000000000000000000000000600052601160045260246000fd5b7f4e487b7100000000000000000000000000000000000000000000000000000000600052602260045260246000fd5b7f4e487b7100000000000000000000000000000000000000000000000000000000600052604160045260246000fd5b620009cf816200083f565b8114620009db57600080fd5b50565b620009e98162000873565b8114620009f557600080fd5b50565b611e298062000a086000396000f3fe6080604052600436106100f75760003560e01c80638253951a1161008a578063dc8452cd11610059578063dc8452cd1461039a578063e0cedd9c146103c5578063eda8b7cd146103f0578063fe0d94c11461042d5761014c565b80638253951a146102c95780639ace38c214610306578063b759f95414610346578063cf8d8ca01461036f5761014c565b806317d7de7c116100c657806317d7de7c1461020d57806320c5429b146102385780632f54bf6e1461026157806373ff81cc1461029e5761014c565b8063025e7c27146101515780631398a5f61461018e57806314de327f146101b957806317a9eb3a146101e25761014c565b3661014c573373ffffffffffffffffffffffffffffffffffffffff167fe1fffcc4923d04b559f4d29a8bfc6cda04eb5b0d3c460751c2402c5c5cc9109c346040516101429190611b19565b60405180910390a2005b600080fd5b34801561015d57600080fd5b5061017860048036038101906101739190611527565b610449565b6040516101859190611993565b60405180910390f35b34801561019a57600080fd5b506101a3610488565b6040516101b09190611b19565b60405180910390f35b3480156101c557600080fd5b506101e060048036038101906101db91906114bb565b610492565b005b3480156101ee57600080fd5b506101f761069b565b6040516102049190611b19565b60405180910390f35b34801561021957600080fd5b506102226106a1565b60405161022f9190611a37565b60405180910390f35b34801561024457600080fd5b5061025f600480360381019061025a9190611527565b610733565b005b34801561026d57600080fd5b5061028860048036038101906102839190611492565b6109c4565b6040516102959190611a1c565b60405180910390f35b3480156102aa57600080fd5b506102b36109e4565b6040516102c09190611b19565b60405180910390f35b3480156102d557600080fd5b506102f060048036038101906102eb9190611550565b6109f1565b6040516102fd9190611a1c565b60405180910390f35b34801561031257600080fd5b5061032d60048036038101906103289190611527565b610a20565b60405161033d94939291906119ae565b60405180910390f35b34801561035257600080fd5b5061036d60048036038101906103689190611527565b610b15565b005b34801561037b57600080fd5b50610384610dd5565b6040516103919190611a37565b60405180910390f35b3480156103a657600080fd5b506103af610e63565b6040516103bc9190611b19565b60405180910390f35b3480156103d157600080fd5b506103da610e69565b6040516103e791906119fa565b60405180910390f35b3480156103fc57600080fd5b5061041760048036038101906104129190611527565b610fd5565b6040516104249190611b19565b60405180910390f35b61044760048036038101906104429190611527565b6110d6565b005b6002818154811061045957600080fd5b906000526020600020016000915054906101000a900473ffffffffffffffffffffffffffffffffffffffff1681565b6000600354905090565b600560003373ffffffffffffffffffffffffffffffffffffffff1673ffffffffffffffffffffffffffffffffffffffff16815260200190815260200160002060009054906101000a900460ff1661051e576040517f08c379a000000000000000000000000000000000000000000000000000000000815260040161051590611ab9565b60405180910390fd5b600460405180608001604052808673ffffffffffffffffffffffffffffffffffffffff16815260200185815260200184848080601f016020809104026020016040519081016040528093929190818152602001838380828437600081840152601f19601f82011690508083019250505050505050815260200160001515815250908060018154018082558091505060019003906000526020600020906004020160009091909190915060008201518160000160006101000a81548173ffffffffffffffffffffffffffffffffffffffff021916908373ffffffffffffffffffffffffffffffffffffffff16021790555060208201518160010155604082015181600201908051906020019061063492919061137b565b5060608201518160030160006101000a81548160ff021916908315150217905550505060016004805490506106699190611c2c565b7f08324b3d745b914e3abd4ffbfead91e3b78391a98c173202129215ab933adfbe60405160405180910390a250505050565b60015481565b6060600080546106b090611cdb565b80601f01602080910402602001604051908101604052809291908181526020018280546106dc90611cdb565b80156107295780601f106106fe57610100808354040283529160200191610729565b820191906000526020600020905b81548152906001019060200180831161070c57829003601f168201915b5050505050905090565b600560003373ffffffffffffffffffffffffffffffffffffffff1673ffffffffffffffffffffffffffffffffffffffff16815260200190815260200160002060009054906101000a900460ff166107bf576040517f08c379a00000000000000000000000000000000000000000000000000000000081526004016107b690611ab9565b60405180910390fd5b806004805490508110610807576040517f08c379a00000000000000000000000000000000000000000000000000000000081526004016107fe90611ad9565b60405180910390fd5b8160048181548110610842577f4e487b7100000000000000000000000000000000000000000000000000000000600052603260045260246000fd5b906000526020600020906004020160030160009054906101000a900460ff16156108a1576040517f08c379a000000000000000000000000000000000000000000000000000000000815260040161089890611a59565b60405180910390fd5b60016006600085815260200190815260200160002060003373ffffffffffffffffffffffffffffffffffffffff1673ffffffffffffffffffffffffffffffffffffffff16815260200190815260200160002060006101000a81548160ff021916908315150217905561091257600080fd5b60006006600085815260200190815260200160002060003373ffffffffffffffffffffffffffffffffffffffff1673ffffffffffffffffffffffffffffffffffffffff16815260200190815260200160002060006101000a81548160ff021916908315150217905550823373ffffffffffffffffffffffffffffffffffffffff167fec9ab91322523c899ede7830ec9bfc992b5981cdcc27b91162fb23de5791117b60405160405180910390a3505050565b60056020528060005260406000206000915054906101000a900460ff1681565b6000600280549050905090565b60066020528160005260406000206020528060005260406000206000915091509054906101000a900460ff1681565b60048181548110610a3057600080fd5b90600052602060002090600402016000915090508060000160009054906101000a900473ffffffffffffffffffffffffffffffffffffffff1690806001015490806002018054610a7f90611cdb565b80601f0160208091040260200160405190810160405280929190818152602001828054610aab90611cdb565b8015610af85780601f10610acd57610100808354040283529160200191610af8565b820191906000526020600020905b815481529060010190602001808311610adb57829003601f168201915b5050505050908060030160009054906101000a900460ff16905084565b600560003373ffffffffffffffffffffffffffffffffffffffff1673ffffffffffffffffffffffffffffffffffffffff16815260200190815260200160002060009054906101000a900460ff16610ba1576040517f08c379a0000000000000000000000000000000000000000000000000000000008152600401610b9890611ab9565b60405180910390fd5b806004805490508110610be9576040517f08c379a0000000000000000000000000000000000000000000000000000000008152600401610be090611ad9565b60405180910390fd5b816006600082815260200190815260200160002060003373ffffffffffffffffffffffffffffffffffffffff1673ffffffffffffffffffffffffffffffffffffffff16815260200190815260200160002060009054906101000a900460ff1615610c88576040517f08c379a0000000000000000000000000000000000000000000000000000000008152600401610c7f90611af9565b60405180910390fd5b8260048181548110610cc3577f4e487b7100000000000000000000000000000000000000000000000000000000600052603260045260246000fd5b906000526020600020906004020160030160009054906101000a900460ff1615610d22576040517f08c379a0000000000000000000000000000000000000000000000000000000008152600401610d1990611a59565b60405180910390fd5b60016006600086815260200190815260200160002060003373ffffffffffffffffffffffffffffffffffffffff1673ffffffffffffffffffffffffffffffffffffffff16815260200190815260200160002060006101000a81548160ff021916908315150217905550833373ffffffffffffffffffffffffffffffffffffffff167f90ec57f18fa7b15c6b8d5e4d1deb90796c74b2ff23d4d0cecad0cb42a96b312860405160405180910390a350505050565b60008054610de290611cdb565b80601f0160208091040260200160405190810160405280929190818152602001828054610e0e90611cdb565b8015610e5b5780601f10610e3057610100808354040283529160200191610e5b565b820191906000526020600020905b815481529060010190602001808311610e3e57829003601f168201915b505050505081565b60035481565b60606004805480602002602001604051908101604052809291908181526020016000905b82821015610fcc57838290600052602060002090600402016040518060800160405290816000820160009054906101000a900473ffffffffffffffffffffffffffffffffffffffff1673ffffffffffffffffffffffffffffffffffffffff1673ffffffffffffffffffffffffffffffffffffffff16815260200160018201548152602001600282018054610f2090611cdb565b80601f0160208091040260200160405190810160405280929190818152602001828054610f4c90611cdb565b8015610f995780601f10610f6e57610100808354040283529160200191610f99565b820191906000526020600020905b815481529060010190602001808311610f7c57829003601f168201915b505050505081526020016003820160009054906101000a900460ff16151515158152505081526020019060010190610e8d565b50505050905090565b6000805b6002805490508110156110d05760066000848152602001908152602001600020600060028381548110611035577f4e487b7100000000000000000000000000000000000000000000000000000000600052603260045260246000fd5b9060005260206000200160009054906101000a900473ffffffffffffffffffffffffffffffffffffffff1673ffffffffffffffffffffffffffffffffffffffff1673ffffffffffffffffffffffffffffffffffffffff16815260200190815260200160002060009054906101000a900460ff16156110bd576001826110ba9190611bd6565b91505b80806110c890611d0d565b915050610fd9565b50919050565b80600480549050811061111e576040517f08c379a000000000000000000000000000000000000000000000000000000000815260040161111590611ad9565b60405180910390fd5b8160048181548110611159577f4e487b7100000000000000000000000000000000000000000000000000000000600052603260045260246000fd5b906000526020600020906004020160030160009054906101000a900460ff16156111b8576040517f08c379a00000000000000000000000000000000000000000000000000000000081526004016111af90611a59565b60405180910390fd5b6003546111c484610fd5565b1015611205576040517f08c379a00000000000000000000000000000000000000000000000000000000081526004016111fc90611a79565b60405180910390fd5b600060048481548110611241577f4e487b7100000000000000000000000000000000000000000000000000000000600052603260045260246000fd5b9060005260206000209060040201905060018160030160006101000a81548160ff02191690831515021790555060008160000160009054906101000a900473ffffffffffffffffffffffffffffffffffffffff1673ffffffffffffffffffffffffffffffffffffffff168260010154836002016040516112c1919061197c565b60006040518083038185875af1925050503d80600081146112fe576040519150601f19603f3d011682016040523d82523d6000602084013e611303565b606091505b5050905080611347576040517f08c379a000000000000000000000000000000000000000000000000000000000815260040161133e90611a99565b60405180910390fd5b847fddb556f1d2c1ec821e910b019d3685b229db152a0ecd517ca7e24b8bd713928960405160405180910390a25050505050565b82805461138790611cdb565b90600052602060002090601f0160209004810192826113a957600085556113f0565b82601f106113c257805160ff19168380011785556113f0565b828001600101855582156113f0579182015b828111156113ef5782518255916020019190600101906113d4565b5b5090506113fd9190611401565b5090565b5b8082111561141a576000816000905550600101611402565b5090565b60008135905061142d81611dc5565b92915050565b60008083601f84011261144557600080fd5b8235905067ffffffffffffffff81111561145e57600080fd5b60208301915083600182028301111561147657600080fd5b9250929050565b60008135905061148c81611ddc565b92915050565b6000602082840312156114a457600080fd5b60006114b28482850161141e565b91505092915050565b600080600080606085870312156114d157600080fd5b60006114df8782880161141e565b94505060206114f08782880161147d565b935050604085013567ffffffffffffffff81111561150d57600080fd5b61151987828801611433565b925092505092959194509250565b60006020828403121561153957600080fd5b60006115478482850161147d565b91505092915050565b6000806040838503121561156357600080fd5b60006115718582860161147d565b92505060206115828582860161141e565b9150509250929050565b600061159883836118fb565b905092915050565b6115a981611c60565b82525050565b6115b881611c60565b82525050565b60006115c982611b59565b6115d38185611b87565b9350836020820285016115e585611b34565b8060005b858110156116215784840389528151611602858261158c565b945061160d83611b7a565b925060208a019950506001810190506115e9565b50829750879550505050505092915050565b61163c81611c72565b82525050565b61164b81611c72565b82525050565b600061165c82611b64565b6116668185611b98565b9350611676818560208601611ca8565b61167f81611db4565b840191505092915050565b600061169582611b64565b61169f8185611ba9565b93506116af818560208601611ca8565b6116b881611db4565b840191505092915050565b600081546116d081611cdb565b6116da8186611bba565b945060018216600081146116f5576001811461170657611739565b60ff19831686528186019350611739565b61170f85611b44565b60005b8381101561173157815481890152600182019150602081019050611712565b838801955050505b50505092915050565b600061174d82611b6f565b6117578185611bc5565b9350611767818560208601611ca8565b61177081611db4565b840191505092915050565b6000611788601883611bc5565b91507f7468697320747820616c726561647920657865637574656400000000000000006000830152602082019050919050565b60006117c8601483611bc5565b91507f617070726f76616c73203c2072657175697265640000000000000000000000006000830152602082019050919050565b6000611808600983611bc5565b91507f7478206661696c696400000000000000000000000000000000000000000000006000830152602082019050919050565b6000611848602083611bc5565b91507f6d73672e73656e646572206d757374206265206f776e657220616464726573736000830152602082019050919050565b6000611888601183611bc5565b91507f747820646f6573206e6f742065786973740000000000000000000000000000006000830152602082019050919050565b60006118c8601383611bc5565b91507f747820616c726561647920617070726f766564000000000000000000000000006000830152602082019050919050565b600060808301600083015161191360008601826115a0565b506020830151611926602086018261195e565b506040830151848203604086015261193e8282611651565b91505060608301516119536060860182611633565b508091505092915050565b61196781611c9e565b82525050565b61197681611c9e565b82525050565b600061198882846116c3565b915081905092915050565b60006020820190506119a860008301846115af565b92915050565b60006080820190506119c360008301876115af565b6119d0602083018661196d565b81810360408301526119e2818561168a565b90506119f16060830184611642565b95945050505050565b60006020820190508181036000830152611a1481846115be565b905092915050565b6000602082019050611a316000830184611642565b92915050565b60006020820190508181036000830152611a518184611742565b905092915050565b60006020820190508181036000830152611a728161177b565b9050919050565b60006020820190508181036000830152611a92816117bb565b9050919050565b60006020820190508181036000830152611ab2816117fb565b9050919050565b60006020820190508181036000830152611ad28161183b565b9050919050565b60006020820190508181036000830152611af28161187b565b9050919050565b60006020820190508181036000830152611b12816118bb565b9050919050565b6000602082019050611b2e600083018461196d565b92915050565b6000819050602082019050919050565b60008190508160005260206000209050919050565b600081519050919050565b600081519050919050565b600081519050919050565b6000602082019050919050565b600082825260208201905092915050565b600082825260208201905092915050565b600082825260208201905092915050565b600081905092915050565b600082825260208201905092915050565b6000611be182611c9e565b9150611bec83611c9e565b9250827fffffffffffffffffffffffffffffffffffffffffffffffffffffffffffffffff03821115611c2157611c20611d56565b5b828201905092915050565b6000611c3782611c9e565b9150611c4283611c9e565b925082821015611c5557611c54611d56565b5b828203905092915050565b6000611c6b82611c7e565b9050919050565b60008115159050919050565b600073ffffffffffffffffffffffffffffffffffffffff82169050919050565b6000819050919050565b60005b83811015611cc6578082015181840152602081019050611cab565b83811115611cd5576000848401525b50505050565b60006002820490506001821680611cf357607f821691505b60208210811415611d0757611d06611d85565b5b50919050565b6000611d1882611c9e565b91507fffffffffffffffffffffffffffffffffffffffffffffffffffffffffffffffff821415611d4b57611d4a611d56565b5b600182019050919050565b7f4e487b7100000000000000000000000000000000000000000000000000000000600052601160045260246000fd5b7f4e487b7100000000000000000000000000000000000000000000000000000000600052602260045260246000fd5b6000601f19601f8301169050919050565b611dce81611c60565b8114611dd957600080fd5b50565b611de581611c9e565b8114611df057600080fd5b5056fea264697066735822122032efaf94a01fb7f804f1b63250762d55de091ee5b1a1501444f863cf86e441ce64736f6c63430008000033",
  "immutableReferences": {},
  "source": "// SPDX-License-Identifier: MIT\npragma solidity >=0.8.0;\n\n/**\n * MultiSigWallet\n */\ncontract MultiSigWalletV2 {\n    // \n    struct Transaction {\n        // \n        address to;\n        // \n        uint256 value;\n        // \n        bytes data;\n        // \n        bool executed;\n    }\n\n    // \n    string public walletName;\n    // faucet value\n    uint256 public faucetValue;\n\n    // Owner\n    address[] public owners;\n    // \n    uint256 public required;\n    // \n    Transaction[] public transactions;\n\n    // ownermap\n    mapping(address => bool) public isOwner;\n    // IDonwermap\n    mapping(uint256 => mapping(address => bool)) public approved;\n\n    // \n    event Deposit(address indexed sender, uint256 amount);\n    event Submit(uint256 indexed txId);\n    event Approve(address indexed owner, uint256 indexed txId);\n    event Revoke(address indexed owner, uint256 indexed txId);\n    event Execute(uint256 indexed txId);\n\n    // owner\n    modifier onlyOwner() {\n        require(isOwner[msg.sender], \"msg.sender must be owner address\");\n        _;\n    }\n\n    // ID\n    modifier txExists(uint256 _txId) {\n        require(_txId < transactions.length, \"tx does not exist\");\n        _;\n    }\n\n    // \n    modifier notApproved(uint256 _txId) {\n        require(!approved[_txId][msg.sender], \"tx already approved\");\n        _;\n    }\n\n    // ID\n    modifier notExecuted(uint256 _txId) {\n        require(!transactions[_txId].executed, \"this tx already executed\");\n        _;\n    }\n\n    /**\n     * \n     * @param _name \n     * @param _owners owner\n     * @param _required \n     * @param _value Faucetvalue\n     */\n    constructor(\n        string memory _name,\n        address[] memory _owners,\n        uint256 _required,\n        uint256 _value\n    ) {\n        // \n        require(\n            _owners.length > 0,\n            \"number of owner addresses must be more than zero!!\"\n        );\n        require(\n            _required > 0 && _required <= _owners.length,\n            \"invalid required number of owners\"\n        );\n\n        // ownermap\n        for (uint256 i; i < _owners.length; i++) {\n            // owner\n            address owner = _owners[i];\n            // owner\n            require(owner != address(0), \"invalid address\");\n            // \n            require(!isOwner[owner], \"owner is not unique\");\n            // map\n            isOwner[owner] = true;\n            owners.push(owner);\n        }\n\n        // \n        walletName = _name;\n        // \n        required = _required;\n        // faucet value\n        faucetValue = _value;\n    }\n\n    /**\n     * \n     */\n    receive() external payable {\n        // \n        emit Deposit(msg.sender, msg.value);\n    }\n\n    /**\n     * \n     * @param _to \n     * @param _value \n     * @param _data \n     */\n    function submit(\n        address _to,\n        uint256 _value,\n        bytes calldata _data\n    ) external onlyOwner {\n        // Transaction\n        transactions.push(\n            Transaction({to: _to, value: _value, data: _data, executed: false})\n        );\n        // \n        emit Submit(transactions.length - 1);\n    }\n\n    /**\n     * ID\n     * @param _txId ID\n     */\n    function approve(uint256 _txId)\n        external\n        onlyOwner\n        txExists(_txId)\n        notApproved(_txId)\n        notExecuted(_txId)\n    {\n        // \n        approved[_txId][msg.sender] = true;\n        // \n        emit Approve(msg.sender, _txId);\n    }\n\n    /**\n     * ID\n     * @param _txId ID\n     */\n    function _getApprovalCount(uint256 _txId)\n        public\n        view\n        returns (uint256 count)\n    {\n        // \n        for (uint256 i; i < owners.length; i++) {\n            // count\n            if (approved[_txId][owners[i]]) {\n                count += 1;\n            }\n        }\n    }\n\n    /**\n     * \n     * @param _txId ID\n     */\n    function execute(uint256 _txId)\n        external\n        payable\n        txExists(_txId)\n        notExecuted(_txId)\n    {\n        // \n        require(_getApprovalCount(_txId) >= required, \"approvals < required\");\n        // \n        Transaction storage transaction = transactions[_txId];\n        // \n        transaction.executed = true;\n        // \n        (bool success, ) = payable(transaction.to).call{\n            value: transaction.value\n        }(transaction.data);\n        // \n        require(success, \"tx failid\");\n        // \n        emit Execute(_txId);\n    }\n\n    /**\n     * \n     * @param _txId ID\n     */\n    function revoke(uint256 _txId)\n        external\n        onlyOwner\n        txExists(_txId)\n        notExecuted(_txId)\n    {\n        // \n        require(approved[_txId][msg.sender] = true);\n        // \n        approved[_txId][msg.sender] = false;\n        // \n        emit Revoke(msg.sender, _txId);\n    }\n\n    /**\n     * \n     */\n    function getName() public view returns (string memory) {\n        return walletName;\n    }\n\n    /**\n     * \n     */\n    function getRequired() public view returns (uint256) {\n        return required;\n    }\n\n    /**\n     * owner\n     */\n    function getOwnersCount() public view returns (uint256) {\n        return owners.length;\n    }\n\n    /**\n     * \n     */\n    function getTxs() public view returns (Transaction[] memory) {\n        return transactions;\n    }\n}\n",
  "sourcePath": "/Users/harukikondo/git/FlowRepo/backend/contracts/Wallet/MultiSigWalletV2.sol",
  "compiler": {
    "name": "solc",
    "version": "0.8.0+commit.c7dfd78e.Emscripten.clang"
  },
  "schemaVersion": "3.4.3",
  "updatedAt": "2022-10-29T04:47:05.559Z",
  "devdoc": {
    "kind": "dev",
    "methods": {
      "_getApprovalCount(uint256)": {
        "params": {
          "_txId": "ID"
        }
      },
      "approve(uint256)": {
        "params": {
          "_txId": "ID"
        }
      },
      "constructor": {
        "params": {
          "_name": "",
          "_owners": "owner",
          "_required": "",
          "_value": "Faucetvalue"
        }
      },
      "execute(uint256)": {
        "params": {
          "_txId": "ID"
        }
      },
      "revoke(uint256)": {
        "params": {
          "_txId": "ID"
        }
      },
      "submit(address,uint256,bytes)": {
        "params": {
          "_data": "",
          "_to": "",
          "_value": ""
        }
      }
    },
    "version": 1
  },
  "userdoc": {
    "kind": "user",
    "methods": {
      "_getApprovalCount(uint256)": {
        "notice": "ID"
      },
      "approve(uint256)": {
        "notice": "ID"
      },
      "constructor": {
        "notice": ""
      },
      "execute(uint256)": {
        "notice": ""
      },
      "getName()": {
        "notice": ""
      },
      "getOwnersCount()": {
        "notice": "owner"
      },
      "getRequired()": {
        "notice": ""
      },
      "getTxs()": {
        "notice": ""
      },
      "revoke(uint256)": {
        "notice": ""
      },
      "submit(address,uint256,bytes)": {
        "notice": ""
      }
    },
    "notice": "MultiSigWallet",
    "version": 1
  }
}