{
  "contractName": "MyToken",
  "abi": [
    {
      "inputs": [
        {
          "internalType": "string",
          "name": "_name",
          "type": "string"
        },
        {
          "internalType": "string",
          "name": "_symbol",
          "type": "string"
        }
      ],
      "stateMutability": "nonpayable",
      "type": "constructor"
    },
    {
      "anonymous": false,
      "inputs": [
        {
          "indexed": true,
          "internalType": "address",
          "name": "owner",
          "type": "address"
        },
        {
          "indexed": true,
          "internalType": "address",
          "name": "spender",
          "type": "address"
        },
        {
          "indexed": false,
          "internalType": "uint256",
          "name": "value",
          "type": "uint256"
        }
      ],
      "name": "Approval",
      "type": "event"
    },
    {
      "anonymous": false,
      "inputs": [
        {
          "indexed": true,
          "internalType": "address",
          "name": "delegator",
          "type": "address"
        },
        {
          "indexed": true,
          "internalType": "address",
          "name": "fromDelegate",
          "type": "address"
        },
        {
          "indexed": true,
          "internalType": "address",
          "name": "toDelegate",
          "type": "address"
        }
      ],
      "name": "DelegateChanged",
      "type": "event"
    },
    {
      "anonymous": false,
      "inputs": [
        {
          "indexed": true,
          "internalType": "address",
          "name": "delegate",
          "type": "address"
        },
        {
          "indexed": false,
          "internalType": "uint256",
          "name": "previousBalance",
          "type": "uint256"
        },
        {
          "indexed": false,
          "internalType": "uint256",
          "name": "newBalance",
          "type": "uint256"
        }
      ],
      "name": "DelegateVotesChanged",
      "type": "event"
    },
    {
      "anonymous": false,
      "inputs": [
        {
          "indexed": true,
          "internalType": "address",
          "name": "previousOwner",
          "type": "address"
        },
        {
          "indexed": true,
          "internalType": "address",
          "name": "newOwner",
          "type": "address"
        }
      ],
      "name": "OwnershipTransferred",
      "type": "event"
    },
    {
      "anonymous": false,
      "inputs": [
        {
          "indexed": false,
          "internalType": "address",
          "name": "account",
          "type": "address"
        }
      ],
      "name": "Paused",
      "type": "event"
    },
    {
      "anonymous": false,
      "inputs": [
        {
          "indexed": true,
          "internalType": "address",
          "name": "from",
          "type": "address"
        },
        {
          "indexed": true,
          "internalType": "address",
          "name": "to",
          "type": "address"
        },
        {
          "indexed": false,
          "internalType": "uint256",
          "name": "value",
          "type": "uint256"
        }
      ],
      "name": "Transfer",
      "type": "event"
    },
    {
      "anonymous": false,
      "inputs": [
        {
          "indexed": false,
          "internalType": "address",
          "name": "account",
          "type": "address"
        }
      ],
      "name": "Unpaused",
      "type": "event"
    },
    {
      "inputs": [],
      "name": "DOMAIN_SEPARATOR",
      "outputs": [
        {
          "internalType": "bytes32",
          "name": "",
          "type": "bytes32"
        }
      ],
      "stateMutability": "view",
      "type": "function",
      "constant": true
    },
    {
      "inputs": [
        {
          "internalType": "address",
          "name": "owner",
          "type": "address"
        },
        {
          "internalType": "address",
          "name": "spender",
          "type": "address"
        }
      ],
      "name": "allowance",
      "outputs": [
        {
          "internalType": "uint256",
          "name": "",
          "type": "uint256"
        }
      ],
      "stateMutability": "view",
      "type": "function",
      "constant": true
    },
    {
      "inputs": [
        {
          "internalType": "address",
          "name": "spender",
          "type": "address"
        },
        {
          "internalType": "uint256",
          "name": "amount",
          "type": "uint256"
        }
      ],
      "name": "approve",
      "outputs": [
        {
          "internalType": "bool",
          "name": "",
          "type": "bool"
        }
      ],
      "stateMutability": "nonpayable",
      "type": "function"
    },
    {
      "inputs": [
        {
          "internalType": "address",
          "name": "account",
          "type": "address"
        }
      ],
      "name": "balanceOf",
      "outputs": [
        {
          "internalType": "uint256",
          "name": "",
          "type": "uint256"
        }
      ],
      "stateMutability": "view",
      "type": "function",
      "constant": true
    },
    {
      "inputs": [
        {
          "internalType": "address",
          "name": "account",
          "type": "address"
        },
        {
          "internalType": "uint256",
          "name": "amount",
          "type": "uint256"
        }
      ],
      "name": "burnFrom",
      "outputs": [],
      "stateMutability": "nonpayable",
      "type": "function"
    },
    {
      "inputs": [
        {
          "internalType": "address",
          "name": "account",
          "type": "address"
        },
        {
          "internalType": "uint32",
          "name": "pos",
          "type": "uint32"
        }
      ],
      "name": "checkpoints",
      "outputs": [
        {
          "components": [
            {
              "internalType": "uint32",
              "name": "fromBlock",
              "type": "uint32"
            },
            {
              "internalType": "uint224",
              "name": "votes",
              "type": "uint224"
            }
          ],
          "internalType": "struct ERC20Votes.Checkpoint",
          "name": "",
          "type": "tuple"
        }
      ],
      "stateMutability": "view",
      "type": "function",
      "constant": true
    },
    {
      "inputs": [],
      "name": "decimals",
      "outputs": [
        {
          "internalType": "uint8",
          "name": "",
          "type": "uint8"
        }
      ],
      "stateMutability": "view",
      "type": "function",
      "constant": true
    },
    {
      "inputs": [
        {
          "internalType": "address",
          "name": "spender",
          "type": "address"
        },
        {
          "internalType": "uint256",
          "name": "subtractedValue",
          "type": "uint256"
        }
      ],
      "name": "decreaseAllowance",
      "outputs": [
        {
          "internalType": "bool",
          "name": "",
          "type": "bool"
        }
      ],
      "stateMutability": "nonpayable",
      "type": "function"
    },
    {
      "inputs": [
        {
          "internalType": "address",
          "name": "delegatee",
          "type": "address"
        }
      ],
      "name": "delegate",
      "outputs": [],
      "stateMutability": "nonpayable",
      "type": "function"
    },
    {
      "inputs": [
        {
          "internalType": "address",
          "name": "delegatee",
          "type": "address"
        },
        {
          "internalType": "uint256",
          "name": "nonce",
          "type": "uint256"
        },
        {
          "internalType": "uint256",
          "name": "expiry",
          "type": "uint256"
        },
        {
          "internalType": "uint8",
          "name": "v",
          "type": "uint8"
        },
        {
          "internalType": "bytes32",
          "name": "r",
          "type": "bytes32"
        },
        {
          "internalType": "bytes32",
          "name": "s",
          "type": "bytes32"
        }
      ],
      "name": "delegateBySig",
      "outputs": [],
      "stateMutability": "nonpayable",
      "type": "function"
    },
    {
      "inputs": [
        {
          "internalType": "address",
          "name": "account",
          "type": "address"
        }
      ],
      "name": "delegates",
      "outputs": [
        {
          "internalType": "address",
          "name": "",
          "type": "address"
        }
      ],
      "stateMutability": "view",
      "type": "function",
      "constant": true
    },
    {
      "inputs": [
        {
          "internalType": "uint256",
          "name": "blockNumber",
          "type": "uint256"
        }
      ],
      "name": "getPastTotalSupply",
      "outputs": [
        {
          "internalType": "uint256",
          "name": "",
          "type": "uint256"
        }
      ],
      "stateMutability": "view",
      "type": "function",
      "constant": true
    },
    {
      "inputs": [
        {
          "internalType": "address",
          "name": "account",
          "type": "address"
        },
        {
          "internalType": "uint256",
          "name": "blockNumber",
          "type": "uint256"
        }
      ],
      "name": "getPastVotes",
      "outputs": [
        {
          "internalType": "uint256",
          "name": "",
          "type": "uint256"
        }
      ],
      "stateMutability": "view",
      "type": "function",
      "constant": true
    },
    {
      "inputs": [
        {
          "internalType": "address",
          "name": "account",
          "type": "address"
        }
      ],
      "name": "getVotes",
      "outputs": [
        {
          "internalType": "uint256",
          "name": "",
          "type": "uint256"
        }
      ],
      "stateMutability": "view",
      "type": "function",
      "constant": true
    },
    {
      "inputs": [
        {
          "internalType": "address",
          "name": "spender",
          "type": "address"
        },
        {
          "internalType": "uint256",
          "name": "addedValue",
          "type": "uint256"
        }
      ],
      "name": "increaseAllowance",
      "outputs": [
        {
          "internalType": "bool",
          "name": "",
          "type": "bool"
        }
      ],
      "stateMutability": "nonpayable",
      "type": "function"
    },
    {
      "inputs": [],
      "name": "name",
      "outputs": [
        {
          "internalType": "string",
          "name": "",
          "type": "string"
        }
      ],
      "stateMutability": "view",
      "type": "function",
      "constant": true
    },
    {
      "inputs": [
        {
          "internalType": "address",
          "name": "owner",
          "type": "address"
        }
      ],
      "name": "nonces",
      "outputs": [
        {
          "internalType": "uint256",
          "name": "",
          "type": "uint256"
        }
      ],
      "stateMutability": "view",
      "type": "function",
      "constant": true
    },
    {
      "inputs": [
        {
          "internalType": "address",
          "name": "account",
          "type": "address"
        }
      ],
      "name": "numCheckpoints",
      "outputs": [
        {
          "internalType": "uint32",
          "name": "",
          "type": "uint32"
        }
      ],
      "stateMutability": "view",
      "type": "function",
      "constant": true
    },
    {
      "inputs": [],
      "name": "owner",
      "outputs": [
        {
          "internalType": "address",
          "name": "",
          "type": "address"
        }
      ],
      "stateMutability": "view",
      "type": "function",
      "constant": true
    },
    {
      "inputs": [],
      "name": "paused",
      "outputs": [
        {
          "internalType": "bool",
          "name": "",
          "type": "bool"
        }
      ],
      "stateMutability": "view",
      "type": "function",
      "constant": true
    },
    {
      "inputs": [
        {
          "internalType": "address",
          "name": "owner",
          "type": "address"
        },
        {
          "internalType": "address",
          "name": "spender",
          "type": "address"
        },
        {
          "internalType": "uint256",
          "name": "value",
          "type": "uint256"
        },
        {
          "internalType": "uint256",
          "name": "deadline",
          "type": "uint256"
        },
        {
          "internalType": "uint8",
          "name": "v",
          "type": "uint8"
        },
        {
          "internalType": "bytes32",
          "name": "r",
          "type": "bytes32"
        },
        {
          "internalType": "bytes32",
          "name": "s",
          "type": "bytes32"
        }
      ],
      "name": "permit",
      "outputs": [],
      "stateMutability": "nonpayable",
      "type": "function"
    },
    {
      "inputs": [],
      "name": "renounceOwnership",
      "outputs": [],
      "stateMutability": "nonpayable",
      "type": "function"
    },
    {
      "inputs": [],
      "name": "symbol",
      "outputs": [
        {
          "internalType": "string",
          "name": "",
          "type": "string"
        }
      ],
      "stateMutability": "view",
      "type": "function",
      "constant": true
    },
    {
      "inputs": [],
      "name": "totalSupply",
      "outputs": [
        {
          "internalType": "uint256",
          "name": "",
          "type": "uint256"
        }
      ],
      "stateMutability": "view",
      "type": "function",
      "constant": true
    },
    {
      "inputs": [
        {
          "internalType": "address",
          "name": "to",
          "type": "address"
        },
        {
          "internalType": "uint256",
          "name": "amount",
          "type": "uint256"
        }
      ],
      "name": "transfer",
      "outputs": [
        {
          "internalType": "bool",
          "name": "",
          "type": "bool"
        }
      ],
      "stateMutability": "nonpayable",
      "type": "function"
    },
    {
      "inputs": [
        {
          "internalType": "address",
          "name": "from",
          "type": "address"
        },
        {
          "internalType": "address",
          "name": "to",
          "type": "address"
        },
        {
          "internalType": "uint256",
          "name": "amount",
          "type": "uint256"
        }
      ],
      "name": "transferFrom",
      "outputs": [
        {
          "internalType": "bool",
          "name": "",
          "type": "bool"
        }
      ],
      "stateMutability": "nonpayable",
      "type": "function"
    },
    {
      "inputs": [
        {
          "internalType": "address",
          "name": "newOwner",
          "type": "address"
        }
      ],
      "name": "transferOwnership",
      "outputs": [],
      "stateMutability": "nonpayable",
      "type": "function"
    },
    {
      "inputs": [],
      "name": "pause",
      "outputs": [],
      "stateMutability": "nonpayable",
      "type": "function"
    },
    {
      "inputs": [],
      "name": "unpause",
      "outputs": [],
      "stateMutability": "nonpayable",
      "type": "function"
    },
    {
      "inputs": [
        {
          "internalType": "address",
          "name": "to",
          "type": "address"
        },
        {
          "internalType": "uint256",
          "name": "amount",
          "type": "uint256"
        }
      ],
      "name": "mint",
      "outputs": [],
      "stateMutability": "nonpayable",
      "type": "function"
    },
    {
      "inputs": [
        {
          "internalType": "uint256",
          "name": "amount",
          "type": "uint256"
        }
      ],
      "name": "burn",
      "outputs": [],
      "stateMutability": "nonpayable",
      "type": "function"
    },
    {
      "inputs": [
        {
          "internalType": "address",
          "name": "to",
          "type": "address"
        },
        {
          "internalType": "uint256",
          "name": "amount",
          "type": "uint256"
        }
      ],
      "name": "burn",
      "outputs": [],
      "stateMutability": "nonpayable",
      "type": "function"
    }
  ],
  "bytecode": "0x6101406040523480156200001257600080fd5b506040516200491738038062004917833981810160405281019062000038919062000525565b81806040518060400160405280600181526020017f3100000000000000000000000000000000000000000000000000000000000000815250848481600390805190602001906200008a929190620002d8565b508060049080519060200190620000a3929190620002d8565b5050506000600560006101000a81548160ff021916908315150217905550620000e1620000d5620001ce60201b60201c565b620001d660201b60201c565b60008280519060200120905060008280519060200120905060007f8b73c3c69bb8fe3d512ecc4cf759cc79239f7b179b0ffacaa9a75d522b39400f90508260e081815250508161010081815250504660a081815250506200014a8184846200029c60201b60201c565b608081815250503073ffffffffffffffffffffffffffffffffffffffff1660c08173ffffffffffffffffffffffffffffffffffffffff168152505080610120818152505050505050505081600b9080519060200190620001ac929190620002d8565b5080600c9080519060200190620001c5929190620002d8565b505050620006e7565b600033905090565b6000600560019054906101000a900473ffffffffffffffffffffffffffffffffffffffff16905081600560016101000a81548173ffffffffffffffffffffffffffffffffffffffff021916908373ffffffffffffffffffffffffffffffffffffffff1602179055508173ffffffffffffffffffffffffffffffffffffffff168173ffffffffffffffffffffffffffffffffffffffff167f8be0079c531659141344cd1fd0a4f28419497f9722a3daafe3b4186f6b6457e060405160405180910390a35050565b60008383834630604051602001620002b995949392919062000625565b6040516020818303038152906040528051906020012090509392505050565b828054620002e690620006b1565b90600052602060002090601f0160209004810192826200030a576000855562000356565b82601f106200032557805160ff191683800117855562000356565b8280016001018555821562000356579182015b828111156200035557825182559160200191906001019062000338565b5b50905062000365919062000369565b5090565b5b80821115620003845760008160009055506001016200036a565b5090565b6000604051905090565b600080fd5b600080fd5b600080fd5b600080fd5b6000601f19601f8301169050919050565b7f4e487b7100000000000000000000000000000000000000000000000000000000600052604160045260246000fd5b620003f182620003a6565b810181811067ffffffffffffffff82111715620004135762000412620003b7565b5b80604052505050565b60006200042862000388565b9050620004368282620003e6565b919050565b600067ffffffffffffffff821115620004595762000458620003b7565b5b6200046482620003a6565b9050602081019050919050565b60005b838110156200049157808201518184015260208101905062000474565b83811115620004a1576000848401525b50505050565b6000620004be620004b8846200043b565b6200041c565b905082815260208101848484011115620004dd57620004dc620003a1565b5b620004ea84828562000471565b509392505050565b600082601f8301126200050a57620005096200039c565b5b81516200051c848260208601620004a7565b91505092915050565b600080604083850312156200053f576200053e62000392565b5b600083015167ffffffffffffffff81111562000560576200055f62000397565b5b6200056e85828601620004f2565b925050602083015167ffffffffffffffff81111562000592576200059162000397565b5b620005a085828601620004f2565b9150509250929050565b6000819050919050565b620005bf81620005aa565b82525050565b6000819050919050565b620005da81620005c5565b82525050565b600073ffffffffffffffffffffffffffffffffffffffff82169050919050565b60006200060d82620005e0565b9050919050565b6200061f8162000600565b82525050565b600060a0820190506200063c6000830188620005b4565b6200064b6020830187620005b4565b6200065a6040830186620005b4565b620006696060830185620005cf565b62000678608083018462000614565b9695505050505050565b7f4e487b7100000000000000000000000000000000000000000000000000000000600052602260045260246000fd5b60006002820490506001821680620006ca57607f821691505b60208210811415620006e157620006e062000682565b5b50919050565b60805160a05160c05160e05161010051610120516141e06200073760003960006116fa0152600061173c0152600061171b01526000611650015260006116a6015260006116cf01526141e06000f3fe608060405234801561001057600080fd5b50600436106101f05760003560e01c8063715018a61161010f5780639dc29fac116100a2578063d505accf11610071578063d505accf146105cd578063dd62ed3e146105e9578063f1127ed814610619578063f2fde38b14610649576101f0565b80639dc29fac14610535578063a457c2d714610551578063a9059cbb14610581578063c3cda520146105b1576101f0565b80638da5cb5b116100de5780638da5cb5b146104995780638e539e8c146104b757806395d89b41146104e75780639ab24eb014610505576101f0565b8063715018a61461043957806379cc6790146104435780637ecebe001461045f5780638456cb591461048f576101f0565b80633f4ba83a116101875780635c19a95c116101565780635c19a95c1461039f5780635c975abb146103bb5780636fcfff45146103d957806370a0823114610409576101f0565b80633f4ba83a1461032d57806340c10f191461033757806342966c6814610353578063587cde1e1461036f576101f0565b8063313ce567116101c3578063313ce567146102915780633644e515146102af57806339509351146102cd5780633a46b1a8146102fd576101f0565b806306fdde03146101f5578063095ea7b31461021357806318160ddd1461024357806323b872dd14610261575b600080fd5b6101fd610665565b60405161020a9190612b16565b60405180910390f35b61022d60048036038101906102289190612bd1565b6106f7565b60405161023a9190612c2c565b60405180910390f35b61024b61071a565b6040516102589190612c56565b60405180910390f35b61027b60048036038101906102769190612c71565b610724565b6040516102889190612c2c565b60405180910390f35b610299610753565b6040516102a69190612ce0565b60405180910390f35b6102b761075c565b6040516102c49190612d14565b60405180910390f35b6102e760048036038101906102e29190612bd1565b61076b565b6040516102f49190612c2c565b60405180910390f35b61031760048036038101906103129190612bd1565b6107a2565b6040516103249190612c56565b60405180910390f35b610335610836565b005b610351600480360381019061034c9190612bd1565b610848565b005b61036d60048036038101906103689190612d2f565b61085e565b005b61038960048036038101906103849190612d5c565b610872565b6040516103969190612d98565b60405180910390f35b6103b960048036038101906103b49190612d5c565b6108db565b005b6103c36108ef565b6040516103d09190612c2c565b60405180910390f35b6103f360048036038101906103ee9190612d5c565b610906565b6040516104009190612dd2565b60405180910390f35b610423600480360381019061041e9190612d5c565b61095a565b6040516104309190612c56565b60405180910390f35b6104416109a2565b005b61045d60048036038101906104589190612bd1565b6109b6565b005b61047960048036038101906104749190612d5c565b6109d6565b6040516104869190612c56565b60405180910390f35b610497610a26565b005b6104a1610a38565b6040516104ae9190612d98565b60405180910390f35b6104d160048036038101906104cc9190612d2f565b610a62565b6040516104de9190612c56565b60405180910390f35b6104ef610ab8565b6040516104fc9190612b16565b60405180910390f35b61051f600480360381019061051a9190612d5c565b610b4a565b60405161052c9190612c56565b60405180910390f35b61054f600480360381019061054a9190612bd1565b610c5b565b005b61056b60048036038101906105669190612bd1565b610c71565b6040516105789190612c2c565b60405180910390f35b61059b60048036038101906105969190612bd1565b610ce8565b6040516105a89190612c2c565b60405180910390f35b6105cb60048036038101906105c69190612e45565b610d0b565b005b6105e760048036038101906105e29190612ed2565b610e0f565b005b61060360048036038101906105fe9190612f74565b610f51565b6040516106109190612c56565b60405180910390f35b610633600480360381019061062e9190612fe0565b610fd8565b6040516106409190613095565b60405180910390f35b610663600480360381019061065e9190612d5c565b6110e8565b005b606060038054610674906130df565b80601f01602080910402602001604051908101604052809291908181526020018280546106a0906130df565b80156106ed5780601f106106c2576101008083540402835291602001916106ed565b820191906000526020600020905b8154815290600101906020018083116106d057829003601f168201915b5050505050905090565b60008061070261116c565b905061070f818585611174565b600191505092915050565b6000600254905090565b60008061072f61116c565b905061073c85828561133f565b6107478585856113cb565b60019150509392505050565b60006012905090565b600061076661164c565b905090565b60008061077661116c565b90506107978185856107888589610f51565b6107929190613140565b611174565b600191505092915050565b60004382106107e6576040517f08c379a00000000000000000000000000000000000000000000000000000000081526004016107dd906131e2565b60405180910390fd5b61082e600960008573ffffffffffffffffffffffffffffffffffffffff1673ffffffffffffffffffffffffffffffffffffffff16815260200190815260200160002083611766565b905092915050565b61083e611872565b6108466118f0565b565b610850611872565b61085a8282611953565b5050565b61086f61086961116c565b82611961565b50565b6000600860008373ffffffffffffffffffffffffffffffffffffffff1673ffffffffffffffffffffffffffffffffffffffff16815260200190815260200160002060009054906101000a900473ffffffffffffffffffffffffffffffffffffffff169050919050565b6108ec6108e661116c565b8261196f565b50565b6000600560009054906101000a900460ff16905090565b6000610953600960008473ffffffffffffffffffffffffffffffffffffffff1673ffffffffffffffffffffffffffffffffffffffff16815260200190815260200160002080549050611a89565b9050919050565b60008060008373ffffffffffffffffffffffffffffffffffffffff1673ffffffffffffffffffffffffffffffffffffffff168152602001908152602001600020549050919050565b6109aa611872565b6109b46000611adc565b565b6109c8826109c261116c565b8361133f565b6109d28282611961565b5050565b6000610a1f600660008473ffffffffffffffffffffffffffffffffffffffff1673ffffffffffffffffffffffffffffffffffffffff168152602001908152602001600020611ba2565b9050919050565b610a2e611872565b610a36611bb0565b565b6000600560019054906101000a900473ffffffffffffffffffffffffffffffffffffffff16905090565b6000438210610aa6576040517f08c379a0000000000000000000000000000000000000000000000000000000008152600401610a9d906131e2565b60405180910390fd5b610ab1600a83611766565b9050919050565b606060048054610ac7906130df565b80601f0160208091040260200160405190810160405280929190818152602001828054610af3906130df565b8015610b405780601f10610b1557610100808354040283529160200191610b40565b820191906000526020600020905b815481529060010190602001808311610b2357829003601f168201915b5050505050905090565b600080600960008473ffffffffffffffffffffffffffffffffffffffff1673ffffffffffffffffffffffffffffffffffffffff16815260200190815260200160002080549050905060008114610c3257600960008473ffffffffffffffffffffffffffffffffffffffff1673ffffffffffffffffffffffffffffffffffffffff168152602001908152602001600020600182610be69190613202565b81548110610bf757610bf6613236565b5b9060005260206000200160000160049054906101000a90047bffffffffffffffffffffffffffffffffffffffffffffffffffffffff16610c35565b60005b7bffffffffffffffffffffffffffffffffffffffffffffffffffffffff16915050919050565b610c63611872565b610c6d8282611961565b5050565b600080610c7c61116c565b90506000610c8a8286610f51565b905083811015610ccf576040517f08c379a0000000000000000000000000000000000000000000000000000000008152600401610cc6906132d7565b60405180910390fd5b610cdc8286868403611174565b60019250505092915050565b600080610cf361116c565b9050610d008185856113cb565b600191505092915050565b83421115610d4e576040517f08c379a0000000000000000000000000000000000000000000000000000000008152600401610d4590613343565b60405180910390fd5b6000610db0610da87fe48329057bfd03d55e49b547132e39cffd9c1820ad7b9d4c5307691425d15adf898989604051602001610d8d9493929190613363565b60405160208183030381529060405280519060200120611c13565b858585611c2d565b9050610dbb81611c58565b8614610dfc576040517f08c379a0000000000000000000000000000000000000000000000000000000008152600401610df3906133f4565b60405180910390fd5b610e06818861196f565b50505050505050565b83421115610e52576040517f08c379a0000000000000000000000000000000000000000000000000000000008152600401610e4990613460565b60405180910390fd5b60007f6e71edae12b1b97f4d1f60370fef10105fa2faae0126114a169c64845d6126c9888888610e818c611c58565b89604051602001610e9796959493929190613480565b6040516020818303038152906040528051906020012090506000610eba82611c13565b90506000610eca82878787611c2d565b90508973ffffffffffffffffffffffffffffffffffffffff168173ffffffffffffffffffffffffffffffffffffffff1614610f3a576040517f08c379a0000000000000000000000000000000000000000000000000000000008152600401610f319061352d565b60405180910390fd5b610f458a8a8a611174565b50505050505050505050565b6000600160008473ffffffffffffffffffffffffffffffffffffffff1673ffffffffffffffffffffffffffffffffffffffff16815260200190815260200160002060008373ffffffffffffffffffffffffffffffffffffffff1673ffffffffffffffffffffffffffffffffffffffff16815260200190815260200160002054905092915050565b610fe0612a3f565b600960008473ffffffffffffffffffffffffffffffffffffffff1673ffffffffffffffffffffffffffffffffffffffff1681526020019081526020016000208263ffffffff168154811061103757611036613236565b5b906000526020600020016040518060400160405290816000820160009054906101000a900463ffffffff1663ffffffff1663ffffffff1681526020016000820160049054906101000a90047bffffffffffffffffffffffffffffffffffffffffffffffffffffffff167bffffffffffffffffffffffffffffffffffffffffffffffffffffffff167bffffffffffffffffffffffffffffffffffffffffffffffffffffffff1681525050905092915050565b6110f0611872565b600073ffffffffffffffffffffffffffffffffffffffff168173ffffffffffffffffffffffffffffffffffffffff161415611160576040517f08c379a0000000000000000000000000000000000000000000000000000000008152600401611157906135bf565b60405180910390fd5b61116981611adc565b50565b600033905090565b600073ffffffffffffffffffffffffffffffffffffffff168373ffffffffffffffffffffffffffffffffffffffff1614156111e4576040517f08c379a00000000000000000000000000000000000000000000000000000000081526004016111db90613651565b60405180910390fd5b600073ffffffffffffffffffffffffffffffffffffffff168273ffffffffffffffffffffffffffffffffffffffff161415611254576040517f08c379a000000000000000000000000000000000000000000000000000000000815260040161124b906136e3565b60405180910390fd5b80600160008573ffffffffffffffffffffffffffffffffffffffff1673ffffffffffffffffffffffffffffffffffffffff16815260200190815260200160002060008473ffffffffffffffffffffffffffffffffffffffff1673ffffffffffffffffffffffffffffffffffffffff168152602001908152602001600020819055508173ffffffffffffffffffffffffffffffffffffffff168373ffffffffffffffffffffffffffffffffffffffff167f8c5be1e5ebec7d5bd14f71427d1e84f3dd0314c0f7b2291e5b200ac8c7c3b925836040516113329190612c56565b60405180910390a3505050565b600061134b8484610f51565b90507fffffffffffffffffffffffffffffffffffffffffffffffffffffffffffffffff81146113c557818110156113b7576040517f08c379a00000000000000000000000000000000000000000000000000000000081526004016113ae9061374f565b60405180910390fd5b6113c48484848403611174565b5b50505050565b600073ffffffffffffffffffffffffffffffffffffffff168373ffffffffffffffffffffffffffffffffffffffff16141561143b576040517f08c379a0000000000000000000000000000000000000000000000000000000008152600401611432906137e1565b60405180910390fd5b600073ffffffffffffffffffffffffffffffffffffffff168273ffffffffffffffffffffffffffffffffffffffff1614156114ab576040517f08c379a00000000000000000000000000000000000000000000000000000000081526004016114a290613873565b60405180910390fd5b6114b6838383611cb6565b60008060008573ffffffffffffffffffffffffffffffffffffffff1673ffffffffffffffffffffffffffffffffffffffff1681526020019081526020016000205490508181101561153c576040517f08c379a000000000000000000000000000000000000000000000000000000000815260040161153390613905565b60405180910390fd5b8181036000808673ffffffffffffffffffffffffffffffffffffffff1673ffffffffffffffffffffffffffffffffffffffff16815260200190815260200160002081905550816000808573ffffffffffffffffffffffffffffffffffffffff1673ffffffffffffffffffffffffffffffffffffffff16815260200190815260200160002060008282546115cf9190613140565b925050819055508273ffffffffffffffffffffffffffffffffffffffff168473ffffffffffffffffffffffffffffffffffffffff167fddf252ad1be2c89b69c2b068fc378daa952ba7f163c4a11628f55a4df523b3ef846040516116339190612c56565b60405180910390a3611646848484611cce565b50505050565b60007f000000000000000000000000000000000000000000000000000000000000000073ffffffffffffffffffffffffffffffffffffffff163073ffffffffffffffffffffffffffffffffffffffff161480156116c857507f000000000000000000000000000000000000000000000000000000000000000046145b156116f5577f00000000000000000000000000000000000000000000000000000000000000009050611763565b6117607f00000000000000000000000000000000000000000000000000000000000000007f00000000000000000000000000000000000000000000000000000000000000007f0000000000000000000000000000000000000000000000000000000000000000611cde565b90505b90565b6000808380549050905060005b818110156117e55760006117878284611d18565b90508486828154811061179d5761179c613236565b5b9060005260206000200160000160009054906101000a900463ffffffff1663ffffffff1611156117cf578092506117df565b6001816117dc9190613140565b91505b50611773565b6000821461184757846001836117fb9190613202565b8154811061180c5761180b613236565b5b9060005260206000200160000160049054906101000a90047bffffffffffffffffffffffffffffffffffffffffffffffffffffffff1661184a565b60005b7bffffffffffffffffffffffffffffffffffffffffffffffffffffffff169250505092915050565b61187a61116c565b73ffffffffffffffffffffffffffffffffffffffff16611898610a38565b73ffffffffffffffffffffffffffffffffffffffff16146118ee576040517f08c379a00000000000000000000000000000000000000000000000000000000081526004016118e590613971565b60405180910390fd5b565b6118f8611d3e565b6000600560006101000a81548160ff0219169083151502179055507f5db9ee0a495bf2e6ff9c91a7834c1ba4fdd244a5e8aa4e537bd38aeae4b073aa61193c61116c565b6040516119499190612d98565b60405180910390a1565b61195d8282611d87565b5050565b61196b8282611e14565b5050565b600061197a83610872565b905060006119878461095a565b905082600860008673ffffffffffffffffffffffffffffffffffffffff1673ffffffffffffffffffffffffffffffffffffffff16815260200190815260200160002060006101000a81548173ffffffffffffffffffffffffffffffffffffffff021916908373ffffffffffffffffffffffffffffffffffffffff1602179055508273ffffffffffffffffffffffffffffffffffffffff168273ffffffffffffffffffffffffffffffffffffffff168573ffffffffffffffffffffffffffffffffffffffff167f3134e8a2e6d97e929a7e54011ea5485d7d196dd5f0ba4d4ef95803e8e3fc257f60405160405180910390a4611a83828483611e32565b50505050565b600063ffffffff8016821115611ad4576040517f08c379a0000000000000000000000000000000000000000000000000000000008152600401611acb90613a03565b60405180910390fd5b819050919050565b6000600560019054906101000a900473ffffffffffffffffffffffffffffffffffffffff16905081600560016101000a81548173ffffffffffffffffffffffffffffffffffffffff021916908373ffffffffffffffffffffffffffffffffffffffff1602179055508173ffffffffffffffffffffffffffffffffffffffff168173ffffffffffffffffffffffffffffffffffffffff167f8be0079c531659141344cd1fd0a4f28419497f9722a3daafe3b4186f6b6457e060405160405180910390a35050565b600081600001549050919050565b611bb861202b565b6001600560006101000a81548160ff0219169083151502179055507f62e78cea01bee320cd4e420270b5ea74000d11b0c9f74754ebdbfc544b05a258611bfc61116c565b604051611c099190612d98565b60405180910390a1565b6000611c26611c2061164c565b83612075565b9050919050565b6000806000611c3e878787876120a8565b91509150611c4b816121b5565b8192505050949350505050565b600080600660008473ffffffffffffffffffffffffffffffffffffffff1673ffffffffffffffffffffffffffffffffffffffff1681526020019081526020016000209050611ca581611ba2565b9150611cb08161238a565b50919050565b611cbe61202b565b611cc98383836123a0565b505050565b611cd98383836123a5565b505050565b60008383834630604051602001611cf9959493929190613a23565b6040516020818303038152906040528051906020012090509392505050565b60006002828418611d299190613aa5565b828416611d369190613140565b905092915050565b611d466108ef565b611d85576040517f08c379a0000000000000000000000000000000000000000000000000000000008152600401611d7c90613b22565b60405180910390fd5b565b611d9182826123d0565b611d99612530565b7bffffffffffffffffffffffffffffffffffffffffffffffffffffffff16611dbf61071a565b1115611e00576040517f08c379a0000000000000000000000000000000000000000000000000000000008152600401611df790613bb4565b60405180910390fd5b611e0e600a6125548361256a565b50505050565b611e1e82826127e2565b611e2c600a6129b98361256a565b50505050565b8173ffffffffffffffffffffffffffffffffffffffff168373ffffffffffffffffffffffffffffffffffffffff1614158015611e6e5750600081115b1561202657600073ffffffffffffffffffffffffffffffffffffffff168373ffffffffffffffffffffffffffffffffffffffff1614611f4c57600080611ef5600960008773ffffffffffffffffffffffffffffffffffffffff1673ffffffffffffffffffffffffffffffffffffffff1681526020019081526020016000206129b98561256a565b915091508473ffffffffffffffffffffffffffffffffffffffff167fdec2bacdd2f05b59de34da9b523dff8be42e5e38e818c82fdb0bae774387a7248383604051611f41929190613bd4565b60405180910390a250505b600073ffffffffffffffffffffffffffffffffffffffff168273ffffffffffffffffffffffffffffffffffffffff161461202557600080611fce600960008673ffffffffffffffffffffffffffffffffffffffff1673ffffffffffffffffffffffffffffffffffffffff1681526020019081526020016000206125548561256a565b915091508373ffffffffffffffffffffffffffffffffffffffff167fdec2bacdd2f05b59de34da9b523dff8be42e5e38e818c82fdb0bae774387a724838360405161201a929190613bd4565b60405180910390a250505b5b505050565b6120336108ef565b15612073576040517f08c379a000000000000000000000000000000000000000000000000000000000815260040161206a90613c49565b60405180910390fd5b565b6000828260405160200161208a929190613ce1565b60405160208183030381529060405280519060200120905092915050565b6000807f7fffffffffffffffffffffffffffffff5d576e7357a4501ddfe92f46681b20a08360001c11156120e35760006003915091506121ac565b601b8560ff16141580156120fb5750601c8560ff1614155b1561210d5760006004915091506121ac565b6000600187878787604051600081526020016040526040516121329493929190613d18565b6020604051602081039080840390855afa158015612154573d6000803e3d6000fd5b505050602060405103519050600073ffffffffffffffffffffffffffffffffffffffff168173ffffffffffffffffffffffffffffffffffffffff1614156121a3576000600192509250506121ac565b80600092509250505b94509492505050565b600060048111156121c9576121c8613d5d565b5b8160048111156121dc576121db613d5d565b5b14156121e757612387565b600160048111156121fb576121fa613d5d565b5b81600481111561220e5761220d613d5d565b5b141561224f576040517f08c379a000000000000000000000000000000000000000000000000000000000815260040161224690613dd8565b60405180910390fd5b6002600481111561226357612262613d5d565b5b81600481111561227657612275613d5d565b5b14156122b7576040517f08c379a00000000000000000000000000000000000000000000000000000000081526004016122ae90613e44565b60405180910390fd5b600360048111156122cb576122ca613d5d565b5b8160048111156122de576122dd613d5d565b5b141561231f576040517f08c379a000000000000000000000000000000000000000000000000000000000815260040161231690613ed6565b60405180910390fd5b60048081111561233257612331613d5d565b5b81600481111561234557612344613d5d565b5b1415612386576040517f08c379a000000000000000000000000000000000000000000000000000000000815260040161237d90613f68565b60405180910390fd5b5b50565b6001816000016000828254019250508190555050565b505050565b6123b08383836129cf565b6123cb6123bc84610872565b6123c584610872565b83611e32565b505050565b600073ffffffffffffffffffffffffffffffffffffffff168273ffffffffffffffffffffffffffffffffffffffff161415612440576040517f08c379a000000000000000000000000000000000000000000000000000000000815260040161243790613fd4565b60405180910390fd5b61244c60008383611cb6565b806002600082825461245e9190613140565b92505081905550806000808473ffffffffffffffffffffffffffffffffffffffff1673ffffffffffffffffffffffffffffffffffffffff16815260200190815260200160002060008282546124b39190613140565b925050819055508173ffffffffffffffffffffffffffffffffffffffff16600073ffffffffffffffffffffffffffffffffffffffff167fddf252ad1be2c89b69c2b068fc378daa952ba7f163c4a11628f55a4df523b3ef836040516125189190612c56565b60405180910390a361252c60008383611cce565b5050565b60007bffffffffffffffffffffffffffffffffffffffffffffffffffffffff905090565b600081836125629190613140565b905092915050565b600080600085805490509050600081146125d8578560018261258c9190613202565b8154811061259d5761259c613236565b5b9060005260206000200160000160049054906101000a90047bffffffffffffffffffffffffffffffffffffffffffffffffffffffff166125db565b60005b7bffffffffffffffffffffffffffffffffffffffffffffffffffffffff16925061260983858763ffffffff16565b915060008111801561265c575043866001836126259190613202565b8154811061263657612635613236565b5b9060005260206000200160000160009054906101000a900463ffffffff1663ffffffff16145b156126e95761266a826129d4565b866001836126789190613202565b8154811061268957612688613236565b5b9060005260206000200160000160046101000a8154817bffffffffffffffffffffffffffffffffffffffffffffffffffffffff02191690837bffffffffffffffffffffffffffffffffffffffffffffffffffffffff1602179055506127d9565b8560405180604001604052806126fe43611a89565b63ffffffff168152602001612712856129d4565b7bffffffffffffffffffffffffffffffffffffffffffffffffffffffff168152509080600181540180825580915050600190039060005260206000200160009091909190915060008201518160000160006101000a81548163ffffffff021916908363ffffffff16021790555060208201518160000160046101000a8154817bffffffffffffffffffffffffffffffffffffffffffffffffffffffff02191690837bffffffffffffffffffffffffffffffffffffffffffffffffffffffff16021790555050505b50935093915050565b600073ffffffffffffffffffffffffffffffffffffffff168273ffffffffffffffffffffffffffffffffffffffff161415612852576040517f08c379a000000000000000000000000000000000000000000000000000000000815260040161284990614066565b60405180910390fd5b61285e82600083611cb6565b60008060008473ffffffffffffffffffffffffffffffffffffffff1673ffffffffffffffffffffffffffffffffffffffff168152602001908152602001600020549050818110156128e4576040517f08c379a00000000000000000000000000000000000000000000000000000000081526004016128db906140f8565b60405180910390fd5b8181036000808573ffffffffffffffffffffffffffffffffffffffff1673ffffffffffffffffffffffffffffffffffffffff16815260200190815260200160002081905550816002600082825461293b9190613202565b92505081905550600073ffffffffffffffffffffffffffffffffffffffff168373ffffffffffffffffffffffffffffffffffffffff167fddf252ad1be2c89b69c2b068fc378daa952ba7f163c4a11628f55a4df523b3ef846040516129a09190612c56565b60405180910390a36129b483600084611cce565b505050565b600081836129c79190613202565b905092915050565b505050565b60007bffffffffffffffffffffffffffffffffffffffffffffffffffffffff8016821115612a37576040517f08c379a0000000000000000000000000000000000000000000000000000000008152600401612a2e9061418a565b60405180910390fd5b819050919050565b6040518060400160405280600063ffffffff16815260200160007bffffffffffffffffffffffffffffffffffffffffffffffffffffffff1681525090565b600081519050919050565b600082825260208201905092915050565b60005b83811015612ab7578082015181840152602081019050612a9c565b83811115612ac6576000848401525b50505050565b6000601f19601f8301169050919050565b6000612ae882612a7d565b612af28185612a88565b9350612b02818560208601612a99565b612b0b81612acc565b840191505092915050565b60006020820190508181036000830152612b308184612add565b905092915050565b600080fd5b600073ffffffffffffffffffffffffffffffffffffffff82169050919050565b6000612b6882612b3d565b9050919050565b612b7881612b5d565b8114612b8357600080fd5b50565b600081359050612b9581612b6f565b92915050565b6000819050919050565b612bae81612b9b565b8114612bb957600080fd5b50565b600081359050612bcb81612ba5565b92915050565b60008060408385031215612be857612be7612b38565b5b6000612bf685828601612b86565b9250506020612c0785828601612bbc565b9150509250929050565b60008115159050919050565b612c2681612c11565b82525050565b6000602082019050612c416000830184612c1d565b92915050565b612c5081612b9b565b82525050565b6000602082019050612c6b6000830184612c47565b92915050565b600080600060608486031215612c8a57612c89612b38565b5b6000612c9886828701612b86565b9350506020612ca986828701612b86565b9250506040612cba86828701612bbc565b9150509250925092565b600060ff82169050919050565b612cda81612cc4565b82525050565b6000602082019050612cf56000830184612cd1565b92915050565b6000819050919050565b612d0e81612cfb565b82525050565b6000602082019050612d296000830184612d05565b92915050565b600060208284031215612d4557612d44612b38565b5b6000612d5384828501612bbc565b91505092915050565b600060208284031215612d7257612d71612b38565b5b6000612d8084828501612b86565b91505092915050565b612d9281612b5d565b82525050565b6000602082019050612dad6000830184612d89565b92915050565b600063ffffffff82169050919050565b612dcc81612db3565b82525050565b6000602082019050612de76000830184612dc3565b92915050565b612df681612cc4565b8114612e0157600080fd5b50565b600081359050612e1381612ded565b92915050565b612e2281612cfb565b8114612e2d57600080fd5b50565b600081359050612e3f81612e19565b92915050565b60008060008060008060c08789031215612e6257612e61612b38565b5b6000612e7089828a01612b86565b9650506020612e8189828a01612bbc565b9550506040612e9289828a01612bbc565b9450506060612ea389828a01612e04565b9350506080612eb489828a01612e30565b92505060a0612ec589828a01612e30565b9150509295509295509295565b600080600080600080600060e0888a031215612ef157612ef0612b38565b5b6000612eff8a828b01612b86565b9750506020612f108a828b01612b86565b9650506040612f218a828b01612bbc565b9550506060612f328a828b01612bbc565b9450506080612f438a828b01612e04565b93505060a0612f548a828b01612e30565b92505060c0612f658a828b01612e30565b91505092959891949750929550565b60008060408385031215612f8b57612f8a612b38565b5b6000612f9985828601612b86565b9250506020612faa85828601612b86565b9150509250929050565b612fbd81612db3565b8114612fc857600080fd5b50565b600081359050612fda81612fb4565b92915050565b60008060408385031215612ff757612ff6612b38565b5b600061300585828601612b86565b925050602061301685828601612fcb565b9150509250929050565b61302981612db3565b82525050565b60007bffffffffffffffffffffffffffffffffffffffffffffffffffffffff82169050919050565b6130608161302f565b82525050565b60408201600082015161307c6000850182613020565b50602082015161308f6020850182613057565b50505050565b60006040820190506130aa6000830184613066565b92915050565b7f4e487b7100000000000000000000000000000000000000000000000000000000600052602260045260246000fd5b600060028204905060018216806130f757607f821691505b6020821081141561310b5761310a6130b0565b5b50919050565b7f4e487b7100000000000000000000000000000000000000000000000000000000600052601160045260246000fd5b600061314b82612b9b565b915061315683612b9b565b9250827fffffffffffffffffffffffffffffffffffffffffffffffffffffffffffffffff0382111561318b5761318a613111565b5b828201905092915050565b7f4552433230566f7465733a20626c6f636b206e6f7420796574206d696e656400600082015250565b60006131cc601f83612a88565b91506131d782613196565b602082019050919050565b600060208201905081810360008301526131fb816131bf565b9050919050565b600061320d82612b9b565b915061321883612b9b565b92508282101561322b5761322a613111565b5b828203905092915050565b7f4e487b7100000000000000000000000000000000000000000000000000000000600052603260045260246000fd5b7f45524332303a2064656372656173656420616c6c6f77616e63652062656c6f7760008201527f207a65726f000000000000000000000000000000000000000000000000000000602082015250565b60006132c1602583612a88565b91506132cc82613265565b604082019050919050565b600060208201905081810360008301526132f0816132b4565b9050919050565b7f4552433230566f7465733a207369676e61747572652065787069726564000000600082015250565b600061332d601d83612a88565b9150613338826132f7565b602082019050919050565b6000602082019050818103600083015261335c81613320565b9050919050565b60006080820190506133786000830187612d05565b6133856020830186612d89565b6133926040830185612c47565b61339f6060830184612c47565b95945050505050565b7f4552433230566f7465733a20696e76616c6964206e6f6e636500000000000000600082015250565b60006133de601983612a88565b91506133e9826133a8565b602082019050919050565b6000602082019050818103600083015261340d816133d1565b9050919050565b7f45524332305065726d69743a206578706972656420646561646c696e65000000600082015250565b600061344a601d83612a88565b915061345582613414565b602082019050919050565b600060208201905081810360008301526134798161343d565b9050919050565b600060c0820190506134956000830189612d05565b6134a26020830188612d89565b6134af6040830187612d89565b6134bc6060830186612c47565b6134c96080830185612c47565b6134d660a0830184612c47565b979650505050505050565b7f45524332305065726d69743a20696e76616c6964207369676e61747572650000600082015250565b6000613517601e83612a88565b9150613522826134e1565b602082019050919050565b600060208201905081810360008301526135468161350a565b9050919050565b7f4f776e61626c653a206e6577206f776e657220697320746865207a65726f206160008201527f6464726573730000000000000000000000000000000000000000000000000000602082015250565b60006135a9602683612a88565b91506135b48261354d565b604082019050919050565b600060208201905081810360008301526135d88161359c565b9050919050565b7f45524332303a20617070726f76652066726f6d20746865207a65726f2061646460008201527f7265737300000000000000000000000000000000000000000000000000000000602082015250565b600061363b602483612a88565b9150613646826135df565b604082019050919050565b6000602082019050818103600083015261366a8161362e565b9050919050565b7f45524332303a20617070726f766520746f20746865207a65726f20616464726560008201527f7373000000000000000000000000000000000000000000000000000000000000602082015250565b60006136cd602283612a88565b91506136d882613671565b604082019050919050565b600060208201905081810360008301526136fc816136c0565b9050919050565b7f45524332303a20696e73756666696369656e7420616c6c6f77616e6365000000600082015250565b6000613739601d83612a88565b915061374482613703565b602082019050919050565b600060208201905081810360008301526137688161372c565b9050919050565b7f45524332303a207472616e736665722066726f6d20746865207a65726f20616460008201527f6472657373000000000000000000000000000000000000000000000000000000602082015250565b60006137cb602583612a88565b91506137d68261376f565b604082019050919050565b600060208201905081810360008301526137fa816137be565b9050919050565b7f45524332303a207472616e7366657220746f20746865207a65726f206164647260008201527f6573730000000000000000000000000000000000000000000000000000000000602082015250565b600061385d602383612a88565b915061386882613801565b604082019050919050565b6000602082019050818103600083015261388c81613850565b9050919050565b7f45524332303a207472616e7366657220616d6f756e742065786365656473206260008201527f616c616e63650000000000000000000000000000000000000000000000000000602082015250565b60006138ef602683612a88565b91506138fa82613893565b604082019050919050565b6000602082019050818103600083015261391e816138e2565b9050919050565b7f4f776e61626c653a2063616c6c6572206973206e6f7420746865206f776e6572600082015250565b600061395b602083612a88565b915061396682613925565b602082019050919050565b6000602082019050818103600083015261398a8161394e565b9050919050565b7f53616665436173743a2076616c756520646f65736e27742066697420696e203360008201527f3220626974730000000000000000000000000000000000000000000000000000602082015250565b60006139ed602683612a88565b91506139f882613991565b604082019050919050565b60006020820190508181036000830152613a1c816139e0565b9050919050565b600060a082019050613a386000830188612d05565b613a456020830187612d05565b613a526040830186612d05565b613a5f6060830185612c47565b613a6c6080830184612d89565b9695505050505050565b7f4e487b7100000000000000000000000000000000000000000000000000000000600052601260045260246000fd5b6000613ab082612b9b565b9150613abb83612b9b565b925082613acb57613aca613a76565b5b828204905092915050565b7f5061757361626c653a206e6f7420706175736564000000000000000000000000600082015250565b6000613b0c601483612a88565b9150613b1782613ad6565b602082019050919050565b60006020820190508181036000830152613b3b81613aff565b9050919050565b7f4552433230566f7465733a20746f74616c20737570706c79207269736b73206f60008201527f766572666c6f77696e6720766f74657300000000000000000000000000000000602082015250565b6000613b9e603083612a88565b9150613ba982613b42565b604082019050919050565b60006020820190508181036000830152613bcd81613b91565b9050919050565b6000604082019050613be96000830185612c47565b613bf66020830184612c47565b9392505050565b7f5061757361626c653a2070617573656400000000000000000000000000000000600082015250565b6000613c33601083612a88565b9150613c3e82613bfd565b602082019050919050565b60006020820190508181036000830152613c6281613c26565b9050919050565b600081905092915050565b7f1901000000000000000000000000000000000000000000000000000000000000600082015250565b6000613caa600283613c69565b9150613cb582613c74565b600282019050919050565b6000819050919050565b613cdb613cd682612cfb565b613cc0565b82525050565b6000613cec82613c9d565b9150613cf88285613cca565b602082019150613d088284613cca565b6020820191508190509392505050565b6000608082019050613d2d6000830187612d05565b613d3a6020830186612cd1565b613d476040830185612d05565b613d546060830184612d05565b95945050505050565b7f4e487b7100000000000000000000000000000000000000000000000000000000600052602160045260246000fd5b7f45434453413a20696e76616c6964207369676e61747572650000000000000000600082015250565b6000613dc2601883612a88565b9150613dcd82613d8c565b602082019050919050565b60006020820190508181036000830152613df181613db5565b9050919050565b7f45434453413a20696e76616c6964207369676e6174757265206c656e67746800600082015250565b6000613e2e601f83612a88565b9150613e3982613df8565b602082019050919050565b60006020820190508181036000830152613e5d81613e21565b9050919050565b7f45434453413a20696e76616c6964207369676e6174757265202773272076616c60008201527f7565000000000000000000000000000000000000000000000000000000000000602082015250565b6000613ec0602283612a88565b9150613ecb82613e64565b604082019050919050565b60006020820190508181036000830152613eef81613eb3565b9050919050565b7f45434453413a20696e76616c6964207369676e6174757265202776272076616c60008201527f7565000000000000000000000000000000000000000000000000000000000000602082015250565b6000613f52602283612a88565b9150613f5d82613ef6565b604082019050919050565b60006020820190508181036000830152613f8181613f45565b9050919050565b7f45524332303a206d696e7420746f20746865207a65726f206164647265737300600082015250565b6000613fbe601f83612a88565b9150613fc982613f88565b602082019050919050565b60006020820190508181036000830152613fed81613fb1565b9050919050565b7f45524332303a206275726e2066726f6d20746865207a65726f2061646472657360008201527f7300000000000000000000000000000000000000000000000000000000000000602082015250565b6000614050602183612a88565b915061405b82613ff4565b604082019050919050565b6000602082019050818103600083015261407f81614043565b9050919050565b7f45524332303a206275726e20616d6f756e7420657863656564732062616c616e60008201527f6365000000000000000000000000000000000000000000000000000000000000602082015250565b60006140e2602283612a88565b91506140ed82614086565b604082019050919050565b60006020820190508181036000830152614111816140d5565b9050919050565b7f53616665436173743a2076616c756520646f65736e27742066697420696e203260008201527f3234206269747300000000000000000000000000000000000000000000000000602082015250565b6000614174602783612a88565b915061417f82614118565b604082019050919050565b600060208201905081810360008301526141a381614167565b905091905056fea26469706673582212201bf75580be77b7d24d1d316773edacb3e76ec2f7cfffdf82fab12729bb70d42e64736f6c63430008090033",
  "immutableReferences": {
    "2592": [
      {
        "length": 32,
        "start": 5839
      }
    ],
    "2594": [
      {
        "length": 32,
        "start": 5798
      }
    ],
    "2596": [
      {
        "length": 32,
        "start": 5712
      }
    ],
    "2598": [
      {
        "length": 32,
        "start": 5915
      }
    ],
    "2600": [
      {
        "length": 32,
        "start": 5948
      }
    ],
    "2602": [
      {
        "length": 32,
        "start": 5882
      }
    ]
  },
  "source": "// SPDX-License-Identifier: MIT\npragma solidity >=0.8.0;\n\nimport \"@openzeppelin/contracts/token/ERC20/ERC20.sol\";\nimport \"@openzeppelin/contracts/token/ERC20/extensions/ERC20Burnable.sol\";\nimport \"@openzeppelin/contracts/security/Pausable.sol\";\nimport \"@openzeppelin/contracts/access/Ownable.sol\";\nimport \"@openzeppelin/contracts/token/ERC20/extensions/draft-ERC20Permit.sol\";\nimport \"@openzeppelin/contracts/token/ERC20/extensions/ERC20Votes.sol\";\n\n/**\n * MyToken Contract\n */\ncontract MyToken is ERC20, ERC20Burnable, Pausable, Ownable, ERC20Permit, ERC20Votes {\n\n    // \n    string tokenName;\n    // \n    string tokenSymbol;\n\n    /**\n    * \n    * @param _name \n    * @param _symbol \n    */\n    constructor(string memory _name, string memory _symbol) ERC20(_name, _symbol) ERC20Permit(_name) {\n        // \n        tokenName = _name;\n        tokenSymbol = _symbol;\n    }\n\n    /**\n    * \n    */\n    function pause() public onlyOwner {\n        _pause();\n    }\n\n    /**\n    * \n    */\n    function unpause() public onlyOwner {\n        _unpause();\n    }\n\n    /**\n    * \n    * @param to \n    * @param amount  \n    */\n    function mint(address to, uint256 amount) public onlyOwner {\n        _mint(to, amount);\n    }\n\n    /**\n    * \n    * @param to \n    * @param amount  \n    */\n    function burn(address to, uint256 amount) public onlyOwner {\n        _burn(to, amount);\n    }\n\n    /**\n    * \n    * @param from \n    * @param to \n    * @param amount \n    */\n    function _beforeTokenTransfer(address from, address to, uint256 amount) internal whenNotPaused override {\n        super._beforeTokenTransfer(from, to, amount);\n    }\n\n    /**\n    * \n    * @param from \n    * @param to \n    * @param amount \n    */\n    function _afterTokenTransfer(address from, address to, uint256 amount) internal override(ERC20, ERC20Votes) {\n        super._afterTokenTransfer(from, to, amount);\n    }\n\n    /**\n    * \n    */\n    function _mint(address to, uint256 amount) internal override(ERC20, ERC20Votes) {\n        super._mint(to, amount);\n    }\n\n    /**\n    * \n    */\n    function _burn(address account, uint256 amount) internal override(ERC20, ERC20Votes) {\n        super._burn(account, amount);\n    }\n}",
  "sourcePath": "/Users/harukikondo/git/FlowRepo/backend/contracts/Token/MyToken.sol",
  "compiler": {
    "name": "solc",
    "version": "0.8.9+commit.e5eed63a.Emscripten.clang"
  },
  "schemaVersion": "3.4.4",
  "updatedAt": "2022-10-28T12:42:58.481Z",
  "networkType": "ethereum",
  "devdoc": {
    "kind": "dev",
    "methods": {
      "DOMAIN_SEPARATOR()": {
        "details": "See {IERC20Permit-DOMAIN_SEPARATOR}."
      },
      "allowance(address,address)": {
        "details": "See {IERC20-allowance}."
      },
      "approve(address,uint256)": {
        "details": "See {IERC20-approve}. NOTE: If `amount` is the maximum `uint256`, the allowance is not updated on `transferFrom`. This is semantically equivalent to an infinite approval. Requirements: - `spender` cannot be the zero address."
      },
      "balanceOf(address)": {
        "details": "See {IERC20-balanceOf}."
      },
      "burn(address,uint256)": {
        "params": {
          "amount": " ",
          "to": ""
        }
      },
      "burn(uint256)": {
        "details": "Destroys `amount` tokens from the caller. See {ERC20-_burn}."
      },
      "burnFrom(address,uint256)": {
        "details": "Destroys `amount` tokens from `account`, deducting from the caller's allowance. See {ERC20-_burn} and {ERC20-allowance}. Requirements: - the caller must have allowance for ``accounts``'s tokens of at least `amount`."
      },
      "checkpoints(address,uint32)": {
        "details": "Get the `pos`-th checkpoint for `account`."
      },
      "constructor": {
        "params": {
          "_name": "",
          "_symbol": ""
        }
      },
      "decimals()": {
        "details": "Returns the number of decimals used to get its user representation. For example, if `decimals` equals `2`, a balance of `505` tokens should be displayed to a user as `5.05` (`505 / 10 ** 2`). Tokens usually opt for a value of 18, imitating the relationship between Ether and Wei. This is the value {ERC20} uses, unless this function is overridden; NOTE: This information is only used for _display_ purposes: it in no way affects any of the arithmetic of the contract, including {IERC20-balanceOf} and {IERC20-transfer}."
      },
      "decreaseAllowance(address,uint256)": {
        "details": "Atomically decreases the allowance granted to `spender` by the caller. This is an alternative to {approve} that can be used as a mitigation for problems described in {IERC20-approve}. Emits an {Approval} event indicating the updated allowance. Requirements: - `spender` cannot be the zero address. - `spender` must have allowance for the caller of at least `subtractedValue`."
      },
      "delegate(address)": {
        "details": "Delegate votes from the sender to `delegatee`."
      },
      "delegateBySig(address,uint256,uint256,uint8,bytes32,bytes32)": {
        "details": "Delegates votes from signer to `delegatee`"
      },
      "delegates(address)": {
        "details": "Get the address `account` is currently delegating to."
      },
      "getPastTotalSupply(uint256)": {
        "details": "Retrieve the `totalSupply` at the end of `blockNumber`. Note, this value is the sum of all balances. It is but NOT the sum of all the delegated votes! Requirements: - `blockNumber` must have been already mined"
      },
      "getPastVotes(address,uint256)": {
        "details": "Retrieve the number of votes for `account` at the end of `blockNumber`. Requirements: - `blockNumber` must have been already mined"
      },
      "getVotes(address)": {
        "details": "Gets the current votes balance for `account`"
      },
      "increaseAllowance(address,uint256)": {
        "details": "Atomically increases the allowance granted to `spender` by the caller. This is an alternative to {approve} that can be used as a mitigation for problems described in {IERC20-approve}. Emits an {Approval} event indicating the updated allowance. Requirements: - `spender` cannot be the zero address."
      },
      "mint(address,uint256)": {
        "params": {
          "amount": " ",
          "to": ""
        }
      },
      "name()": {
        "details": "Returns the name of the token."
      },
      "nonces(address)": {
        "details": "See {IERC20Permit-nonces}."
      },
      "numCheckpoints(address)": {
        "details": "Get number of checkpoints for `account`."
      },
      "owner()": {
        "details": "Returns the address of the current owner."
      },
      "paused()": {
        "details": "Returns true if the contract is paused, and false otherwise."
      },
      "permit(address,address,uint256,uint256,uint8,bytes32,bytes32)": {
        "details": "See {IERC20Permit-permit}."
      },
      "renounceOwnership()": {
        "details": "Leaves the contract without owner. It will not be possible to call `onlyOwner` functions anymore. Can only be called by the current owner. NOTE: Renouncing ownership will leave the contract without an owner, thereby removing any functionality that is only available to the owner."
      },
      "symbol()": {
        "details": "Returns the symbol of the token, usually a shorter version of the name."
      },
      "totalSupply()": {
        "details": "See {IERC20-totalSupply}."
      },
      "transfer(address,uint256)": {
        "details": "See {IERC20-transfer}. Requirements: - `to` cannot be the zero address. - the caller must have a balance of at least `amount`."
      },
      "transferFrom(address,address,uint256)": {
        "details": "See {IERC20-transferFrom}. Emits an {Approval} event indicating the updated allowance. This is not required by the EIP. See the note at the beginning of {ERC20}. NOTE: Does not update the allowance if the current allowance is the maximum `uint256`. Requirements: - `from` and `to` cannot be the zero address. - `from` must have a balance of at least `amount`. - the caller must have allowance for ``from``'s tokens of at least `amount`."
      },
      "transferOwnership(address)": {
        "details": "Transfers ownership of the contract to a new account (`newOwner`). Can only be called by the current owner."
      }
    },
    "version": 1
  },
  "userdoc": {
    "kind": "user",
    "methods": {
      "burn(address,uint256)": {
        "notice": ""
      },
      "constructor": {
        "notice": ""
      },
      "mint(address,uint256)": {
        "notice": ""
      },
      "pause()": {
        "notice": ""
      },
      "unpause()": {
        "notice": ""
      }
    },
    "notice": "MyToken Contract",
    "version": 1
  }
}