{
  "contractName": "WalletFactoryV3",
  "abi": [
    {
      "anonymous": false,
      "inputs": [
        {
          "indexed": false,
          "internalType": "string",
          "name": "_userId",
          "type": "string"
        },
        {
          "indexed": false,
          "internalType": "address",
          "name": "wAddress",
          "type": "address"
        }
      ],
      "name": "Create",
      "type": "event"
    },
    {
      "inputs": [
        {
          "internalType": "string",
          "name": "",
          "type": "string"
        }
      ],
      "name": "isRegistered",
      "outputs": [
        {
          "internalType": "bool",
          "name": "",
          "type": "bool"
        }
      ],
      "stateMutability": "view",
      "type": "function"
    },
    {
      "inputs": [],
      "name": "userId",
      "outputs": [
        {
          "internalType": "string",
          "name": "",
          "type": "string"
        }
      ],
      "stateMutability": "view",
      "type": "function"
    },
    {
      "inputs": [
        {
          "internalType": "string",
          "name": "",
          "type": "string"
        }
      ],
      "name": "walletMap",
      "outputs": [
        {
          "internalType": "address",
          "name": "",
          "type": "address"
        }
      ],
      "stateMutability": "view",
      "type": "function"
    },
    {
      "inputs": [
        {
          "internalType": "string",
          "name": "_userId",
          "type": "string"
        }
      ],
      "name": "createCoreWallet",
      "outputs": [],
      "stateMutability": "nonpayable",
      "type": "function"
    }
  ],
  "bytecode": "0x608060405234801561001057600080fd5b50610d23806100206000396000f3fe60806040523480156200001157600080fd5b5060043610620000525760003560e01c8063589759191462000057578063b256a3e41462000079578063c822d7f01462000099578063d83613e014620000cf575b600080fd5b6200006162000105565b604051620000709190620005bf565b60405180910390f35b62000097600480360381019062000091919062000425565b6200019b565b005b620000b76004803603810190620000b1919062000425565b62000326565b604051620000c69190620005a2565b60405180910390f35b620000ed6004803603810190620000e7919062000425565b6200035c565b604051620000fc919062000585565b60405180910390f35b6000805462000114906200074c565b80601f016020809104026020016040519081016040528092919081815260200182805462000142906200074c565b8015620001935780601f10620001675761010080835404028352916020019162000193565b820191906000526020600020905b8154815290600101906020018083116200017557829003601f168201915b505050505081565b600281604051620001ad91906200056c565b908152602001604051809103902060009054906101000a900460ff16156200020c576040517f08c379a0000000000000000000000000000000000000000000000000000000008152600401620002039062000617565b60405180910390fd5b6000816040516200021d90620003a5565b620002299190620005bf565b604051809103906000f08015801562000246573d6000803e3d6000fd5b509050600081905060016002846040516200026291906200056c565b908152602001604051809103902060006101000a81548160ff021916908315150217905550806003846040516200029a91906200056c565b908152602001604051809103902060006101000a81548173ffffffffffffffffffffffffffffffffffffffff021916908373ffffffffffffffffffffffffffffffffffffffff1602179055507fb27bb48959e661e2ff2784657a44fb5baa6c91210a608d6f656f51820a9bb528838260405162000319929190620005e3565b60405180910390a1505050565b6002818051602081018201805184825260208301602085012081835280955050505050506000915054906101000a900460ff1681565b6003818051602081018201805184825260208301602085012081835280955050505050506000915054906101000a900473ffffffffffffffffffffffffffffffffffffffff1681565b6104fc80620007f283390190565b6000620003ca620003c4846200066d565b62000639565b905082815260208101848484011115620003e357600080fd5b620003f084828562000707565b509392505050565b600082601f8301126200040a57600080fd5b81356200041c848260208601620003b3565b91505092915050565b6000602082840312156200043857600080fd5b600082013567ffffffffffffffff8111156200045357600080fd5b6200046184828501620003f8565b91505092915050565b6200047581620006c7565b82525050565b6200048681620006db565b82525050565b60006200049982620006a0565b620004a58185620006ab565b9350620004b781856020860162000716565b620004c281620007e0565b840191505092915050565b6000620004da82620006a0565b620004e68185620006bc565b9350620004f881856020860162000716565b80840191505092915050565b600062000513602283620006ab565b91507f746869732075736572494420697320616c72656164792072656769737465726560008301527f642e0000000000000000000000000000000000000000000000000000000000006020830152604082019050919050565b60006200057a8284620004cd565b915081905092915050565b60006020820190506200059c60008301846200046a565b92915050565b6000602082019050620005b960008301846200047b565b92915050565b60006020820190508181036000830152620005db81846200048c565b905092915050565b60006040820190508181036000830152620005ff81856200048c565b90506200061060208301846200046a565b9392505050565b60006020820190508181036000830152620006328162000504565b9050919050565b6000604051905081810181811067ffffffffffffffff82111715620006635762000662620007b1565b5b8060405250919050565b600067ffffffffffffffff8211156200068b576200068a620007b1565b5b601f19601f8301169050602081019050919050565b600081519050919050565b600082825260208201905092915050565b600081905092915050565b6000620006d482620006e7565b9050919050565b60008115159050919050565b600073ffffffffffffffffffffffffffffffffffffffff82169050919050565b82818337600083830152505050565b60005b838110156200073657808201518184015260208101905062000719565b8381111562000746576000848401525b50505050565b600060028204905060018216806200076557607f821691505b602082108114156200077c576200077b62000782565b5b50919050565b7f4e487b7100000000000000000000000000000000000000000000000000000000600052602260045260246000fd5b7f4e487b7100000000000000000000000000000000000000000000000000000000600052604160045260246000fd5b6000601f19601f830116905091905056fe608060405234801561001057600080fd5b506040516104fc3803806104fc8339818101604052810190610032919061015a565b806000908051906020019061004892919061004f565b50506102bf565b82805461005b9061022f565b90600052602060002090601f01602090048101928261007d57600085556100c4565b82601f1061009657805160ff19168380011785556100c4565b828001600101855582156100c4579182015b828111156100c35782518255916020019190600101906100a8565b5b5090506100d191906100d5565b5090565b5b808211156100ee5760008160009055506001016100d6565b5090565b6000610105610100846101cc565b61019b565b90508281526020810184848401111561011d57600080fd5b6101288482856101fc565b509392505050565b600082601f83011261014157600080fd5b81516101518482602086016100f2565b91505092915050565b60006020828403121561016c57600080fd5b600082015167ffffffffffffffff81111561018657600080fd5b61019284828501610130565b91505092915050565b6000604051905081810181811067ffffffffffffffff821117156101c2576101c1610290565b5b8060405250919050565b600067ffffffffffffffff8211156101e7576101e6610290565b5b601f19601f8301169050602081019050919050565b60005b8381101561021a5780820151818401526020810190506101ff565b83811115610229576000848401525b50505050565b6000600282049050600182168061024757607f821691505b6020821081141561025b5761025a610261565b5b50919050565b7f4e487b7100000000000000000000000000000000000000000000000000000000600052602260045260246000fd5b7f4e487b7100000000000000000000000000000000000000000000000000000000600052604160045260246000fd5b61022e806102ce6000396000f3fe608060405234801561001057600080fd5b506004361061002b5760003560e01c80635897591914610030575b600080fd5b61003861004e565b6040516100459190610115565b60405180910390f35b6000805461005b90610186565b80601f016020809104026020016040519081016040528092919081815260200182805461008790610186565b80156100d45780601f106100a9576101008083540402835291602001916100d4565b820191906000526020600020905b8154815290600101906020018083116100b757829003601f168201915b505050505081565b60006100e782610137565b6100f18185610142565b9350610101818560208601610153565b61010a816101e7565b840191505092915050565b6000602082019050818103600083015261012f81846100dc565b905092915050565b600081519050919050565b600082825260208201905092915050565b60005b83811015610171578082015181840152602081019050610156565b83811115610180576000848401525b50505050565b6000600282049050600182168061019e57607f821691505b602082108114156101b2576101b16101b8565b5b50919050565b7f4e487b7100000000000000000000000000000000000000000000000000000000600052602260045260246000fd5b6000601f19601f830116905091905056fea2646970667358221220e6fc05561b49f928fefb49833cc84a14d82d5fc536112eb0192915c99372b7e364736f6c63430008000033a2646970667358221220f66b12bdf8122637d003c71d5e4567ed4f6a809c8437bce033cd5b3a04912ace64736f6c63430008000033",
  "immutableReferences": {},
  "source": "// SPDX-License-Identifier: MIT\npragma solidity >=0.8.0;\n\nimport \"./CoreWallet.sol\";\nimport \"./../Token/MyToken.sol\";\n\n/**\n * WalletFactoryV3 Contract\n */\ncontract WalletFactoryV3 {\n    // userID\n    string public userId;\n    // MyToken\n    MyToken IDQToken;\n\n    mapping(string => bool) public isRegistered;\n    mapping(string => address) public walletMap;\n\n    // event\n    event Create(string _userId, address wAddress);\n\n    /**\n     * create Core Wallet\n     * @param _userId userID\n     */\n    function createCoreWallet(string memory _userId) public {\n        // check\n        require(!isRegistered[_userId], \"this userID is already registered.\");\n        // create wallet\n        CoreWallet wallet = new CoreWallet(_userId);\n        // get wallet address\n        address wAddress = address(wallet);\n\n        // set mapping\n        isRegistered[_userId] = true;\n        walletMap[_userId] = wAddress;\n\n        emit Create(_userId, wAddress);\n    }\n}\n",
  "sourcePath": "/Users/harukikondo/git/FlowRepo/backend/contracts/Wallet/WalletFactoryV3.sol",
  "compiler": {
    "name": "solc",
    "version": "0.8.0+commit.c7dfd78e.Emscripten.clang"
  },
  "schemaVersion": "3.4.3",
  "updatedAt": "2022-10-29T04:47:05.577Z",
  "devdoc": {
    "kind": "dev",
    "methods": {
      "createCoreWallet(string)": {
        "params": {
          "_userId": "userID"
        }
      }
    },
    "version": 1
  },
  "userdoc": {
    "kind": "user",
    "methods": {
      "createCoreWallet(string)": {
        "notice": "create Core Wallet"
      }
    },
    "notice": "WalletFactoryV3 Contract",
    "version": 1
  }
}